{
  "_format": "hh-sol-artifact-1",
  "contractName": "FighterFactory",
  "sourceName": "contracts/fighter/fighterfactory.sol",
  "abi": [
    {
      "inputs": [],
      "stateMutability": "nonpayable",
      "type": "constructor"
    },
    {
      "anonymous": false,
      "inputs": [
        {
          "indexed": true,
          "internalType": "address",
          "name": "owner",
          "type": "address"
        },
        {
          "indexed": true,
          "internalType": "address",
          "name": "approved",
          "type": "address"
        },
        {
          "indexed": true,
          "internalType": "uint256",
          "name": "tokenId",
          "type": "uint256"
        }
      ],
      "name": "Approval",
      "type": "event"
    },
    {
      "anonymous": false,
      "inputs": [
        {
          "indexed": true,
          "internalType": "address",
          "name": "owner",
          "type": "address"
        },
        {
          "indexed": true,
          "internalType": "address",
          "name": "operator",
          "type": "address"
        },
        {
          "indexed": false,
          "internalType": "bool",
          "name": "approved",
          "type": "bool"
        }
      ],
      "name": "ApprovalForAll",
      "type": "event"
    },
    {
      "anonymous": false,
      "inputs": [
        {
          "indexed": false,
          "internalType": "uint256",
          "name": "fighterId",
          "type": "uint256"
        },
        {
          "indexed": false,
          "internalType": "string",
          "name": "name",
          "type": "string"
        },
        {
          "indexed": false,
          "internalType": "uint256",
          "name": "style",
          "type": "uint256"
        }
      ],
      "name": "NewFighter",
      "type": "event"
    },
    {
      "anonymous": false,
      "inputs": [
        {
          "indexed": true,
          "internalType": "address",
          "name": "previousOwner",
          "type": "address"
        },
        {
          "indexed": true,
          "internalType": "address",
          "name": "newOwner",
          "type": "address"
        }
      ],
      "name": "OwnershipTransferred",
      "type": "event"
    },
    {
      "anonymous": false,
      "inputs": [
        {
          "indexed": true,
          "internalType": "address",
          "name": "from",
          "type": "address"
        },
        {
          "indexed": true,
          "internalType": "address",
          "name": "to",
          "type": "address"
        },
        {
          "indexed": true,
          "internalType": "uint256",
          "name": "tokenId",
          "type": "uint256"
        }
      ],
      "name": "Transfer",
      "type": "event"
    },
    {
      "inputs": [
        {
          "internalType": "address",
          "name": "to",
          "type": "address"
        },
        {
          "internalType": "uint256",
          "name": "tokenId",
          "type": "uint256"
        }
      ],
      "name": "approve",
      "outputs": [],
      "stateMutability": "nonpayable",
      "type": "function"
    },
    {
      "inputs": [
        {
          "internalType": "address",
          "name": "owner",
          "type": "address"
        }
      ],
      "name": "balanceOf",
      "outputs": [
        {
          "internalType": "uint256",
          "name": "",
          "type": "uint256"
        }
      ],
      "stateMutability": "view",
      "type": "function"
    },
    {
      "inputs": [],
      "name": "baseExtension",
      "outputs": [
        {
          "internalType": "string",
          "name": "",
          "type": "string"
        }
      ],
      "stateMutability": "view",
      "type": "function"
    },
    {
      "inputs": [],
      "name": "baseURI",
      "outputs": [
        {
          "internalType": "string",
          "name": "",
          "type": "string"
        }
      ],
      "stateMutability": "view",
      "type": "function"
    },
    {
      "inputs": [],
      "name": "cooldownTime",
      "outputs": [
        {
          "internalType": "uint16",
          "name": "",
          "type": "uint16"
        }
      ],
      "stateMutability": "view",
      "type": "function"
    },
    {
      "inputs": [],
      "name": "cost",
      "outputs": [
        {
          "internalType": "uint256",
          "name": "",
          "type": "uint256"
        }
      ],
      "stateMutability": "view",
      "type": "function"
    },
    {
      "inputs": [
        {
          "internalType": "string",
          "name": "_name",
          "type": "string"
        },
        {
          "internalType": "uint8",
          "name": "_style",
          "type": "uint8"
        }
      ],
      "name": "createFighter",
      "outputs": [
        {
          "internalType": "bool",
          "name": "",
          "type": "bool"
        }
      ],
      "stateMutability": "payable",
      "type": "function"
    },
    {
      "inputs": [
        {
          "internalType": "uint256",
          "name": "",
          "type": "uint256"
        }
      ],
      "name": "fighterIdToOwner",
      "outputs": [
        {
          "internalType": "address",
          "name": "",
          "type": "address"
        }
      ],
      "stateMutability": "view",
      "type": "function"
    },
    {
      "inputs": [
        {
          "internalType": "uint256",
          "name": "",
          "type": "uint256"
        }
      ],
      "name": "fighters",
      "outputs": [
        {
          "internalType": "string",
          "name": "name",
          "type": "string"
        },
        {
          "internalType": "uint8",
          "name": "weight",
          "type": "uint8"
        },
        {
          "internalType": "uint8",
          "name": "age",
          "type": "uint8"
        },
        {
          "internalType": "uint8",
          "name": "level",
          "type": "uint8"
        },
        {
          "internalType": "uint8",
          "name": "fightingStyle",
          "type": "uint8"
        },
        {
          "internalType": "uint32",
          "name": "xp",
          "type": "uint32"
        },
        {
          "internalType": "uint256",
          "name": "readyTime",
          "type": "uint256"
        },
        {
          "internalType": "uint256",
          "name": "id",
          "type": "uint256"
        },
        {
          "internalType": "bool",
          "name": "injured",
          "type": "bool"
        },
        {
          "internalType": "enum FighterFactory.pro_status",
          "name": "status",
          "type": "uint8"
        }
      ],
      "stateMutability": "view",
      "type": "function"
    },
    {
      "inputs": [
        {
          "internalType": "uint256",
          "name": "tokenId",
          "type": "uint256"
        }
      ],
      "name": "getApproved",
      "outputs": [
        {
          "internalType": "address",
          "name": "",
          "type": "address"
        }
      ],
      "stateMutability": "view",
      "type": "function"
    },
    {
      "inputs": [
        {
          "internalType": "uint256",
          "name": "_fighterId",
          "type": "uint256"
        }
      ],
      "name": "getFighterURI",
      "outputs": [
        {
          "internalType": "string",
          "name": "",
          "type": "string"
        }
      ],
      "stateMutability": "view",
      "type": "function"
    },
    {
      "inputs": [
        {
          "internalType": "address",
          "name": "owner",
          "type": "address"
        },
        {
          "internalType": "address",
          "name": "operator",
          "type": "address"
        }
      ],
      "name": "isApprovedForAll",
      "outputs": [
        {
          "internalType": "bool",
          "name": "",
          "type": "bool"
        }
      ],
      "stateMutability": "view",
      "type": "function"
    },
    {
      "inputs": [],
      "name": "name",
      "outputs": [
        {
          "internalType": "string",
          "name": "",
          "type": "string"
        }
      ],
      "stateMutability": "view",
      "type": "function"
    },
    {
      "inputs": [],
      "name": "owner",
      "outputs": [
        {
          "internalType": "address",
          "name": "",
          "type": "address"
        }
      ],
      "stateMutability": "view",
      "type": "function"
    },
    {
      "inputs": [
        {
          "internalType": "uint256",
          "name": "tokenId",
          "type": "uint256"
        }
      ],
      "name": "ownerOf",
      "outputs": [
        {
          "internalType": "address",
          "name": "",
          "type": "address"
        }
      ],
      "stateMutability": "view",
      "type": "function"
    },
    {
      "inputs": [
        {
          "internalType": "bool",
          "name": "_state",
          "type": "bool"
        }
      ],
      "name": "pause",
      "outputs": [],
      "stateMutability": "nonpayable",
      "type": "function"
    },
    {
      "inputs": [],
      "name": "paused",
      "outputs": [
        {
          "internalType": "bool",
          "name": "",
          "type": "bool"
        }
      ],
      "stateMutability": "view",
      "type": "function"
    },
    {
      "inputs": [],
      "name": "renounceOwnership",
      "outputs": [],
      "stateMutability": "nonpayable",
      "type": "function"
    },
    {
      "inputs": [
        {
          "internalType": "address",
          "name": "from",
          "type": "address"
        },
        {
          "internalType": "address",
          "name": "to",
          "type": "address"
        },
        {
          "internalType": "uint256",
          "name": "tokenId",
          "type": "uint256"
        }
      ],
      "name": "safeTransferFrom",
      "outputs": [],
      "stateMutability": "nonpayable",
      "type": "function"
    },
    {
      "inputs": [
        {
          "internalType": "address",
          "name": "from",
          "type": "address"
        },
        {
          "internalType": "address",
          "name": "to",
          "type": "address"
        },
        {
          "internalType": "uint256",
          "name": "tokenId",
          "type": "uint256"
        },
        {
          "internalType": "bytes",
          "name": "_data",
          "type": "bytes"
        }
      ],
      "name": "safeTransferFrom",
      "outputs": [],
      "stateMutability": "nonpayable",
      "type": "function"
    },
    {
      "inputs": [
        {
          "internalType": "uint256",
          "name": "",
          "type": "uint256"
        },
        {
          "internalType": "uint256",
          "name": "",
          "type": "uint256"
        }
      ],
      "name": "selectedStyle",
      "outputs": [
        {
          "internalType": "uint8",
          "name": "",
          "type": "uint8"
        }
      ],
      "stateMutability": "view",
      "type": "function"
    },
    {
      "inputs": [
        {
          "internalType": "address",
          "name": "operator",
          "type": "address"
        },
        {
          "internalType": "bool",
          "name": "approved",
          "type": "bool"
        }
      ],
      "name": "setApprovalForAll",
      "outputs": [],
      "stateMutability": "nonpayable",
      "type": "function"
    },
    {
      "inputs": [
        {
          "internalType": "bytes4",
          "name": "interfaceId",
          "type": "bytes4"
        }
      ],
      "name": "supportsInterface",
      "outputs": [
        {
          "internalType": "bool",
          "name": "",
          "type": "bool"
        }
      ],
      "stateMutability": "view",
      "type": "function"
    },
    {
      "inputs": [],
      "name": "symbol",
      "outputs": [
        {
          "internalType": "string",
          "name": "",
          "type": "string"
        }
      ],
      "stateMutability": "view",
      "type": "function"
    },
    {
      "inputs": [
        {
          "internalType": "uint256",
          "name": "index",
          "type": "uint256"
        }
      ],
      "name": "tokenByIndex",
      "outputs": [
        {
          "internalType": "uint256",
          "name": "",
          "type": "uint256"
        }
      ],
      "stateMutability": "view",
      "type": "function"
    },
    {
      "inputs": [
        {
          "internalType": "address",
          "name": "owner",
          "type": "address"
        },
        {
          "internalType": "uint256",
          "name": "index",
          "type": "uint256"
        }
      ],
      "name": "tokenOfOwnerByIndex",
      "outputs": [
        {
          "internalType": "uint256",
          "name": "",
          "type": "uint256"
        }
      ],
      "stateMutability": "view",
      "type": "function"
    },
    {
      "inputs": [
        {
          "internalType": "uint256",
          "name": "tokenId",
          "type": "uint256"
        }
      ],
      "name": "tokenURI",
      "outputs": [
        {
          "internalType": "string",
          "name": "",
          "type": "string"
        }
      ],
      "stateMutability": "view",
      "type": "function"
    },
    {
      "inputs": [],
      "name": "totalSupply",
      "outputs": [
        {
          "internalType": "uint256",
          "name": "",
          "type": "uint256"
        }
      ],
      "stateMutability": "view",
      "type": "function"
    },
    {
      "inputs": [
        {
          "internalType": "address",
          "name": "from",
          "type": "address"
        },
        {
          "internalType": "address",
          "name": "to",
          "type": "address"
        },
        {
          "internalType": "uint256",
          "name": "tokenId",
          "type": "uint256"
        }
      ],
      "name": "transferFrom",
      "outputs": [],
      "stateMutability": "nonpayable",
      "type": "function"
    },
    {
      "inputs": [
        {
          "internalType": "address",
          "name": "newOwner",
          "type": "address"
        }
      ],
      "name": "transferOwnership",
      "outputs": [],
      "stateMutability": "nonpayable",
      "type": "function"
    },
    {
      "inputs": [],
      "name": "withdraw",
      "outputs": [],
      "stateMutability": "payable",
      "type": "function"
    }
  ],
  "bytecode": "0x60806040526040518060400160405280600581526020017f2e6a736f6e000000000000000000000000000000000000000000000000000000815250600c90805190602001906200005192919062000576565b50614650600d60006101000a81548161ffff021916908361ffff16021790555067016345785d8a0000600e556000600f60006101000a81548160ff021916908315150217905550348015620000a557600080fd5b506040518060400160405280601181526020017f554643727970746f2046696768746572730000000000000000000000000000008152506040518060400160405280600681526020017f46474854455200000000000000000000000000000000000000000000000000008152506200013262000126620004aa60201b60201c565b620004b260201b60201c565b81600190805190602001906200014a92919062000576565b5080600290805190602001906200016392919062000576565b50505060405180606001604052806036815260200162004b9260369139600b90805190602001906200019792919062000576565b506013604051806101200160405280600d60ff168152602001600b60ff168152602001600a60ff168152602001600960ff168152602001600360ff168152602001600a60ff168152602001600f60ff168152602001600260ff168152602001600260ff16815250908060018154018082558091505060019003906000526020600020016000909190919091509060096200023392919062000607565b506013604051806101200160405280600b60ff168152602001600d60ff168152602001600a60ff168152602001600960ff168152602001600260ff168152602001600f60ff168152602001600a60ff168152602001600360ff168152602001600260ff1681525090806001815401808255809150506001900390600052602060002001600090919091909150906009620002cf92919062000607565b506013604051806101200160405280600960ff168152602001600c60ff168152602001600a60ff168152602001600c60ff168152602001600b60ff168152602001600160ff168152602001600260ff168152602001600f60ff168152602001600360ff16815250908060018154018082558091505060019003906000526020600020016000909190919091509060096200036b92919062000607565b506013604051806101200160405280600860ff168152602001600a60ff168152602001600a60ff168152602001600b60ff168152602001600d60ff168152602001600160ff168152602001600160ff168152602001600b60ff168152602001600a60ff16815250908060018154018082558091505060019003906000526020600020016000909190919091509060096200040792919062000607565b506013604051806101200160405280600860ff168152602001600960ff168152602001600a60ff168152602001600960ff168152602001600860ff168152602001600860ff168152602001600860ff168152602001600860ff168152602001600860ff1681525090806001815401808255809150506001900390600052602060002001600090919091909150906009620004a392919062000607565b506200072c565b600033905090565b60008060009054906101000a900473ffffffffffffffffffffffffffffffffffffffff169050816000806101000a81548173ffffffffffffffffffffffffffffffffffffffff021916908373ffffffffffffffffffffffffffffffffffffffff1602179055508173ffffffffffffffffffffffffffffffffffffffff168173ffffffffffffffffffffffffffffffffffffffff167f8be0079c531659141344cd1fd0a4f28419497f9722a3daafe3b4186f6b6457e060405160405180910390a35050565b8280546200058490620006c7565b90600052602060002090601f016020900481019282620005a85760008555620005f4565b82601f10620005c357805160ff1916838001178555620005f4565b82800160010185558215620005f4579182015b82811115620005f3578251825591602001919060010190620005d6565b5b509050620006039190620006a8565b5090565b826009601f01602090048101928215620006955791602002820160005b838211156200066457835183826101000a81548160ff021916908360ff160217905550926020019260010160208160000104928301926001030262000624565b8015620006935782816101000a81549060ff021916905560010160208160000104928301926001030262000664565b505b509050620006a49190620006a8565b5090565b5b80821115620006c3576000816000905550600101620006a9565b5090565b60006002820490506001821680620006e057607f821691505b60208210811415620006f757620006f6620006fd565b5b50919050565b7f4e487b7100000000000000000000000000000000000000000000000000000000600052602260045260246000fd5b614456806200073c6000396000f3fe6080604052600436106101d85760003560e01c80634f6ccce711610102578063a22cb46511610095578063c87b56dd11610064578063c87b56dd146106e2578063e5cbb6931461071f578063e985e9c51461074f578063f2fde38b1461078c576101d8565b8063a22cb4651461063a578063b319c6b714610663578063b88d4fde1461068e578063c6682862146106b7576101d8565b806370a08231116100d157806370a0823114610590578063715018a6146105cd5780638da5cb5b146105e457806395d89b411461060f576101d8565b80634f6ccce7146104c05780635c975abb146104fd5780636352211e146105285780636c0360eb14610565576101d8565b806323b872dd1161017a57806342842e0e1161014957806342842e0e146103e057806342f22a241461040957806343d514f1146104465780634b19393314610483576101d8565b806323b872dd1461032a5780632e6b221d146103535780632f745c59146103995780633ccfd60b146103d6576101d8565b8063081812fc116101b6578063081812fc1461026e578063095ea7b3146102ab57806313faede6146102d457806318160ddd146102ff576101d8565b806301ffc9a7146101dd57806302329a291461021a57806306fdde0314610243575b600080fd5b3480156101e957600080fd5b5061020460048036038101906101ff919061318e565b6107b5565b6040516102119190613bb6565b60405180910390f35b34801561022657600080fd5b50610241600480360381019061023c9190613165565b61082f565b005b34801561024f57600080fd5b506102586108c8565b6040516102659190613bd1565b60405180910390f35b34801561027a57600080fd5b5061029560048036038101906102909190613234565b61095a565b6040516102a29190613b4f565b60405180910390f35b3480156102b757600080fd5b506102d260048036038101906102cd9190613129565b6109df565b005b3480156102e057600080fd5b506102e9610af7565b6040516102f69190613f11565b60405180910390f35b34801561030b57600080fd5b50610314610afd565b6040516103219190613f11565b60405180910390f35b34801561033657600080fd5b50610351600480360381019061034c9190613023565b610b0a565b005b34801561035f57600080fd5b5061037a60048036038101906103759190613234565b610b6a565b6040516103909a99989796959493929190613bf3565b60405180910390f35b3480156103a557600080fd5b506103c060048036038101906103bb9190613129565b610ca4565b6040516103cd9190613f11565b60405180910390f35b6103de610d49565b005b3480156103ec57600080fd5b5061040760048036038101906104029190613023565b610e05565b005b34801561041557600080fd5b50610430600480360381019061042b9190613234565b610e25565b60405161043d9190613bd1565b60405180910390f35b34801561045257600080fd5b5061046d6004803603810190610468919061325d565b610eca565b60405161047a9190613f2c565b60405180910390f35b34801561048f57600080fd5b506104aa60048036038101906104a59190613234565b610f0f565b6040516104b79190613b4f565b60405180910390f35b3480156104cc57600080fd5b506104e760048036038101906104e29190613234565b610f42565b6040516104f49190613f11565b60405180910390f35b34801561050957600080fd5b50610512610fd9565b60405161051f9190613bb6565b60405180910390f35b34801561053457600080fd5b5061054f600480360381019061054a9190613234565b610fec565b60405161055c9190613b4f565b60405180910390f35b34801561057157600080fd5b5061057a61109e565b6040516105879190613bd1565b60405180910390f35b34801561059c57600080fd5b506105b760048036038101906105b29190612fbe565b61112c565b6040516105c49190613f11565b60405180910390f35b3480156105d957600080fd5b506105e26111e4565b005b3480156105f057600080fd5b506105f961126c565b6040516106069190613b4f565b60405180910390f35b34801561061b57600080fd5b50610624611295565b6040516106319190613bd1565b60405180910390f35b34801561064657600080fd5b50610661600480360381019061065c91906130ed565b611327565b005b34801561066f57600080fd5b5061067861133d565b6040516106859190613ef6565b60405180910390f35b34801561069a57600080fd5b506106b560048036038101906106b09190613072565b611351565b005b3480156106c357600080fd5b506106cc6113b3565b6040516106d99190613bd1565b60405180910390f35b3480156106ee57600080fd5b5061070960048036038101906107049190613234565b611441565b6040516107169190613bd1565b60405180910390f35b610739600480360381019061073491906131e0565b61156e565b6040516107469190613bb6565b60405180910390f35b34801561075b57600080fd5b5061077660048036038101906107719190612fe7565b611917565b6040516107839190613bb6565b60405180910390f35b34801561079857600080fd5b506107b360048036038101906107ae9190612fbe565b6119ab565b005b60007f780e9d63000000000000000000000000000000000000000000000000000000007bffffffffffffffffffffffffffffffffffffffffffffffffffffffff1916827bffffffffffffffffffffffffffffffffffffffffffffffffffffffff19161480610828575061082782611aa3565b5b9050919050565b610837611b85565b73ffffffffffffffffffffffffffffffffffffffff1661085561126c565b73ffffffffffffffffffffffffffffffffffffffff16146108ab576040517f08c379a00000000000000000000000000000000000000000000000000000000081526004016108a290613e16565b60405180910390fd5b80600f60006101000a81548160ff02191690831515021790555050565b6060600180546108d7906141f1565b80601f0160208091040260200160405190810160405280929190818152602001828054610903906141f1565b80156109505780601f1061092557610100808354040283529160200191610950565b820191906000526020600020905b81548152906001019060200180831161093357829003601f168201915b5050505050905090565b600061096582611b8d565b6109a4576040517f08c379a000000000000000000000000000000000000000000000000000000000815260040161099b90613df6565b60405180910390fd5b6005600083815260200190815260200160002060009054906101000a900473ffffffffffffffffffffffffffffffffffffffff169050919050565b60006109ea82610fec565b90508073ffffffffffffffffffffffffffffffffffffffff168373ffffffffffffffffffffffffffffffffffffffff161415610a5b576040517f08c379a0000000000000000000000000000000000000000000000000000000008152600401610a5290613e76565b60405180910390fd5b8073ffffffffffffffffffffffffffffffffffffffff16610a7a611b85565b73ffffffffffffffffffffffffffffffffffffffff161480610aa95750610aa881610aa3611b85565b611917565b5b610ae8576040517f08c379a0000000000000000000000000000000000000000000000000000000008152600401610adf90613d76565b60405180910390fd5b610af28383611bf9565b505050565b600e5481565b6000600980549050905090565b610b1b610b15611b85565b82611cb2565b610b5a576040517f08c379a0000000000000000000000000000000000000000000000000000000008152600401610b5190613e96565b60405180910390fd5b610b65838383611d90565b505050565b6010602052806000526040600020600091509050806000018054610b8d906141f1565b80601f0160208091040260200160405190810160405280929190818152602001828054610bb9906141f1565b8015610c065780601f10610bdb57610100808354040283529160200191610c06565b820191906000526020600020905b815481529060010190602001808311610be957829003601f168201915b5050505050908060010160009054906101000a900460ff16908060010160019054906101000a900460ff16908060010160029054906101000a900460ff16908060010160039054906101000a900460ff16908060010160049054906101000a900463ffffffff16908060020154908060030154908060060160009054906101000a900460ff16908060060160019054906101000a900460ff1690508a565b6000610caf8361112c565b8210610cf0576040517f08c379a0000000000000000000000000000000000000000000000000000000008152600401610ce790613c96565b60405180910390fd5b600760008473ffffffffffffffffffffffffffffffffffffffff1673ffffffffffffffffffffffffffffffffffffffff168152602001908152602001600020600083815260200190815260200160002054905092915050565b610d51611b85565b73ffffffffffffffffffffffffffffffffffffffff16610d6f61126c565b73ffffffffffffffffffffffffffffffffffffffff1614610dc5576040517f08c379a0000000000000000000000000000000000000000000000000000000008152600401610dbc90613e16565b60405180910390fd5b3373ffffffffffffffffffffffffffffffffffffffff166108fc479081150290604051600060405180830381858888f19350505050610e0357600080fd5b565b610e2083838360405180602001604052806000815250611351565b505050565b6060601260008381526020019081526020016000208054610e45906141f1565b80601f0160208091040260200160405190810160405280929190818152602001828054610e71906141f1565b8015610ebe5780601f10610e9357610100808354040283529160200191610ebe565b820191906000526020600020905b815481529060010190602001808311610ea157829003601f168201915b50505050509050919050565b60138281548110610eda57600080fd5b906000526020600020018160098110610ef257600080fd5b60209182820401919006915091509054906101000a900460ff1681565b60116020528060005260406000206000915054906101000a900473ffffffffffffffffffffffffffffffffffffffff1681565b6000610f4c610afd565b8210610f8d576040517f08c379a0000000000000000000000000000000000000000000000000000000008152600401610f8490613eb6565b60405180910390fd5b60098281548110610fc7577f4e487b7100000000000000000000000000000000000000000000000000000000600052603260045260246000fd5b90600052602060002001549050919050565b600f60009054906101000a900460ff1681565b6000806003600084815260200190815260200160002060009054906101000a900473ffffffffffffffffffffffffffffffffffffffff169050600073ffffffffffffffffffffffffffffffffffffffff168173ffffffffffffffffffffffffffffffffffffffff161415611095576040517f08c379a000000000000000000000000000000000000000000000000000000000815260040161108c90613db6565b60405180910390fd5b80915050919050565b600b80546110ab906141f1565b80601f01602080910402602001604051908101604052809291908181526020018280546110d7906141f1565b80156111245780601f106110f957610100808354040283529160200191611124565b820191906000526020600020905b81548152906001019060200180831161110757829003601f168201915b505050505081565b60008073ffffffffffffffffffffffffffffffffffffffff168273ffffffffffffffffffffffffffffffffffffffff16141561119d576040517f08c379a000000000000000000000000000000000000000000000000000000000815260040161119490613d96565b60405180910390fd5b600460008373ffffffffffffffffffffffffffffffffffffffff1673ffffffffffffffffffffffffffffffffffffffff168152602001908152602001600020549050919050565b6111ec611b85565b73ffffffffffffffffffffffffffffffffffffffff1661120a61126c565b73ffffffffffffffffffffffffffffffffffffffff1614611260576040517f08c379a000000000000000000000000000000000000000000000000000000000815260040161125790613e16565b60405180910390fd5b61126a6000611fec565b565b60008060009054906101000a900473ffffffffffffffffffffffffffffffffffffffff16905090565b6060600280546112a4906141f1565b80601f01602080910402602001604051908101604052809291908181526020018280546112d0906141f1565b801561131d5780601f106112f25761010080835404028352916020019161131d565b820191906000526020600020905b81548152906001019060200180831161130057829003601f168201915b5050505050905090565b611339611332611b85565b83836120b0565b5050565b600d60009054906101000a900461ffff1681565b61136261135c611b85565b83611cb2565b6113a1576040517f08c379a000000000000000000000000000000000000000000000000000000000815260040161139890613e96565b60405180910390fd5b6113ad8484848461221d565b50505050565b600c80546113c0906141f1565b80601f01602080910402602001604051908101604052809291908181526020018280546113ec906141f1565b80156114395780601f1061140e57610100808354040283529160200191611439565b820191906000526020600020905b81548152906001019060200180831161141c57829003601f168201915b505050505081565b606061144c82611b8d565b61148b576040517f08c379a000000000000000000000000000000000000000000000000000000000815260040161148290613e56565b60405180910390fd5b6000600b805461149a906141f1565b80601f01602080910402602001604051908101604052809291908181526020018280546114c6906141f1565b80156115135780601f106114e857610100808354040283529160200191611513565b820191906000526020600020905b8154815290600101906020018083116114f657829003601f168201915b5050505050905060008151116115385760405180602001604052806000815250611566565b8061154284612279565b600c60405160200161155693929190613b1e565b6040516020818303038152906040525b915050919050565b6000600a61157b3361112c565b106115bb576040517f08c379a00000000000000000000000000000000000000000000000000000000081526004016115b290613ed6565b60405180910390fd5b600e543410156115ca57600080fd5b60006115d4610afd565b905060405180610180016040528085815260200160aa60ff168152602001601260ff168152602001600160ff1681526020018460ff168152602001600063ffffffff16815260200142815260200182815260200160138560ff1681548110611665577f4e487b7100000000000000000000000000000000000000000000000000000000600052603260045260246000fd5b906000526020600020016009806020026040519081016040528092919082600980156116cc576020028201916000905b82829054906101000a900460ff1660ff16815260200190600101906020826000010492830192600103820291508084116116955790505b505050505081526020016040518060c00160405280600060ff168152602001600060ff168152602001600060ff168152602001600060ff168152602001600060ff168152602001600060ff16815250815260200160001515815260200160006004811115611763577f4e487b7100000000000000000000000000000000000000000000000000000000600052602160045260246000fd5b815250601060008381526020019081526020016000206000820151816000019080519060200190611795929190612c99565b5060208201518160010160006101000a81548160ff021916908360ff16021790555060408201518160010160016101000a81548160ff021916908360ff16021790555060608201518160010160026101000a81548160ff021916908360ff16021790555060808201518160010160036101000a81548160ff021916908360ff16021790555060a08201518160010160046101000a81548163ffffffff021916908363ffffffff16021790555060c0820151816002015560e082015181600301556101008201518160040190600961186d929190612d1f565b5061012082015181600501906006611886929190612db9565b506101408201518160060160006101000a81548160ff0219169083151502179055506101608201518160060160016101000a81548160ff021916908360048111156118fa577f4e487b7100000000000000000000000000000000000000000000000000000000600052602160045260246000fd5b021790555090505061190c3382612426565b600191505092915050565b6000600660008473ffffffffffffffffffffffffffffffffffffffff1673ffffffffffffffffffffffffffffffffffffffff16815260200190815260200160002060008373ffffffffffffffffffffffffffffffffffffffff1673ffffffffffffffffffffffffffffffffffffffff16815260200190815260200160002060009054906101000a900460ff16905092915050565b6119b3611b85565b73ffffffffffffffffffffffffffffffffffffffff166119d161126c565b73ffffffffffffffffffffffffffffffffffffffff1614611a27576040517f08c379a0000000000000000000000000000000000000000000000000000000008152600401611a1e90613e16565b60405180910390fd5b600073ffffffffffffffffffffffffffffffffffffffff168173ffffffffffffffffffffffffffffffffffffffff161415611a97576040517f08c379a0000000000000000000000000000000000000000000000000000000008152600401611a8e90613cd6565b60405180910390fd5b611aa081611fec565b50565b60007f80ac58cd000000000000000000000000000000000000000000000000000000007bffffffffffffffffffffffffffffffffffffffffffffffffffffffff1916827bffffffffffffffffffffffffffffffffffffffffffffffffffffffff19161480611b6e57507f5b5e139f000000000000000000000000000000000000000000000000000000007bffffffffffffffffffffffffffffffffffffffffffffffffffffffff1916827bffffffffffffffffffffffffffffffffffffffffffffffffffffffff1916145b80611b7e5750611b7d826125f4565b5b9050919050565b600033905090565b60008073ffffffffffffffffffffffffffffffffffffffff166003600084815260200190815260200160002060009054906101000a900473ffffffffffffffffffffffffffffffffffffffff1673ffffffffffffffffffffffffffffffffffffffff1614159050919050565b816005600083815260200190815260200160002060006101000a81548173ffffffffffffffffffffffffffffffffffffffff021916908373ffffffffffffffffffffffffffffffffffffffff160217905550808273ffffffffffffffffffffffffffffffffffffffff16611c6c83610fec565b73ffffffffffffffffffffffffffffffffffffffff167f8c5be1e5ebec7d5bd14f71427d1e84f3dd0314c0f7b2291e5b200ac8c7c3b92560405160405180910390a45050565b6000611cbd82611b8d565b611cfc576040517f08c379a0000000000000000000000000000000000000000000000000000000008152600401611cf390613d56565b60405180910390fd5b6000611d0783610fec565b90508073ffffffffffffffffffffffffffffffffffffffff168473ffffffffffffffffffffffffffffffffffffffff161480611d7657508373ffffffffffffffffffffffffffffffffffffffff16611d5e8461095a565b73ffffffffffffffffffffffffffffffffffffffff16145b80611d875750611d868185611917565b5b91505092915050565b8273ffffffffffffffffffffffffffffffffffffffff16611db082610fec565b73ffffffffffffffffffffffffffffffffffffffff1614611e06576040517f08c379a0000000000000000000000000000000000000000000000000000000008152600401611dfd90613e36565b60405180910390fd5b600073ffffffffffffffffffffffffffffffffffffffff168273ffffffffffffffffffffffffffffffffffffffff161415611e76576040517f08c379a0000000000000000000000000000000000000000000000000000000008152600401611e6d90613d16565b60405180910390fd5b611e8183838361265e565b611e8c600082611bf9565b6001600460008573ffffffffffffffffffffffffffffffffffffffff1673ffffffffffffffffffffffffffffffffffffffff1681526020019081526020016000206000828254611edc91906140b7565b925050819055506001600460008473ffffffffffffffffffffffffffffffffffffffff1673ffffffffffffffffffffffffffffffffffffffff1681526020019081526020016000206000828254611f339190614030565b92505081905550816003600083815260200190815260200160002060006101000a81548173ffffffffffffffffffffffffffffffffffffffff021916908373ffffffffffffffffffffffffffffffffffffffff160217905550808273ffffffffffffffffffffffffffffffffffffffff168473ffffffffffffffffffffffffffffffffffffffff167fddf252ad1be2c89b69c2b068fc378daa952ba7f163c4a11628f55a4df523b3ef60405160405180910390a4505050565b60008060009054906101000a900473ffffffffffffffffffffffffffffffffffffffff169050816000806101000a81548173ffffffffffffffffffffffffffffffffffffffff021916908373ffffffffffffffffffffffffffffffffffffffff1602179055508173ffffffffffffffffffffffffffffffffffffffff168173ffffffffffffffffffffffffffffffffffffffff167f8be0079c531659141344cd1fd0a4f28419497f9722a3daafe3b4186f6b6457e060405160405180910390a35050565b8173ffffffffffffffffffffffffffffffffffffffff168373ffffffffffffffffffffffffffffffffffffffff16141561211f576040517f08c379a000000000000000000000000000000000000000000000000000000000815260040161211690613d36565b60405180910390fd5b80600660008573ffffffffffffffffffffffffffffffffffffffff1673ffffffffffffffffffffffffffffffffffffffff16815260200190815260200160002060008473ffffffffffffffffffffffffffffffffffffffff1673ffffffffffffffffffffffffffffffffffffffff16815260200190815260200160002060006101000a81548160ff0219169083151502179055508173ffffffffffffffffffffffffffffffffffffffff168373ffffffffffffffffffffffffffffffffffffffff167f17307eab39ab6107e8899845ad3d59bd9653f200f220920489ca2b5937696c31836040516122109190613bb6565b60405180910390a3505050565b612228848484611d90565b61223484848484612772565b612273576040517f08c379a000000000000000000000000000000000000000000000000000000000815260040161226a90613cb6565b60405180910390fd5b50505050565b606060008214156122c1576040518060400160405280600181526020017f30000000000000000000000000000000000000000000000000000000000000008152509050612421565b600082905060005b600082146122f35780806122dc90614223565b915050600a826122ec9190614086565b91506122c9565b60008167ffffffffffffffff811115612335577f4e487b7100000000000000000000000000000000000000000000000000000000600052604160045260246000fd5b6040519080825280601f01601f1916602001820160405280156123675781602001600182028036833780820191505090505b5090505b6000851461241a5760018261238091906140b7565b9150600a8561238f919061426c565b603061239b9190614030565b60f81b8183815181106123d7577f4e487b7100000000000000000000000000000000000000000000000000000000600052603260045260246000fd5b60200101907effffffffffffffffffffffffffffffffffffffffffffffffffffffffffffff1916908160001a905350600a856124139190614086565b945061236b565b8093505050505b919050565b600073ffffffffffffffffffffffffffffffffffffffff168273ffffffffffffffffffffffffffffffffffffffff161415612496576040517f08c379a000000000000000000000000000000000000000000000000000000000815260040161248d90613dd6565b60405180910390fd5b61249f81611b8d565b156124df576040517f08c379a00000000000000000000000000000000000000000000000000000000081526004016124d690613cf6565b60405180910390fd5b6124eb6000838361265e565b6001600460008473ffffffffffffffffffffffffffffffffffffffff1673ffffffffffffffffffffffffffffffffffffffff168152602001908152602001600020600082825461253b9190614030565b92505081905550816003600083815260200190815260200160002060006101000a81548173ffffffffffffffffffffffffffffffffffffffff021916908373ffffffffffffffffffffffffffffffffffffffff160217905550808273ffffffffffffffffffffffffffffffffffffffff16600073ffffffffffffffffffffffffffffffffffffffff167fddf252ad1be2c89b69c2b068fc378daa952ba7f163c4a11628f55a4df523b3ef60405160405180910390a45050565b60007f01ffc9a7000000000000000000000000000000000000000000000000000000007bffffffffffffffffffffffffffffffffffffffffffffffffffffffff1916827bffffffffffffffffffffffffffffffffffffffffffffffffffffffff1916149050919050565b612669838383612909565b600073ffffffffffffffffffffffffffffffffffffffff168373ffffffffffffffffffffffffffffffffffffffff1614156126ac576126a78161290e565b6126eb565b8173ffffffffffffffffffffffffffffffffffffffff168373ffffffffffffffffffffffffffffffffffffffff16146126ea576126e98382612957565b5b5b600073ffffffffffffffffffffffffffffffffffffffff168273ffffffffffffffffffffffffffffffffffffffff16141561272e5761272981612ac4565b61276d565b8273ffffffffffffffffffffffffffffffffffffffff168273ffffffffffffffffffffffffffffffffffffffff161461276c5761276b8282612c07565b5b5b505050565b60006127938473ffffffffffffffffffffffffffffffffffffffff16612c86565b156128fc578373ffffffffffffffffffffffffffffffffffffffff1663150b7a026127bc611b85565b8786866040518563ffffffff1660e01b81526004016127de9493929190613b6a565b602060405180830381600087803b1580156127f857600080fd5b505af192505050801561282957506040513d601f19601f8201168201806040525081019061282691906131b7565b60015b6128ac573d8060008114612859576040519150601f19603f3d011682016040523d82523d6000602084013e61285e565b606091505b506000815114156128a4576040517f08c379a000000000000000000000000000000000000000000000000000000000815260040161289b90613cb6565b60405180910390fd5b805181602001fd5b63150b7a0260e01b7bffffffffffffffffffffffffffffffffffffffffffffffffffffffff1916817bffffffffffffffffffffffffffffffffffffffffffffffffffffffff191614915050612901565b600190505b949350505050565b505050565b600980549050600a600083815260200190815260200160002081905550600981908060018154018082558091505060019003906000526020600020016000909190919091505550565b600060016129648461112c565b61296e91906140b7565b9050600060086000848152602001908152602001600020549050818114612a53576000600760008673ffffffffffffffffffffffffffffffffffffffff1673ffffffffffffffffffffffffffffffffffffffff168152602001908152602001600020600084815260200190815260200160002054905080600760008773ffffffffffffffffffffffffffffffffffffffff1673ffffffffffffffffffffffffffffffffffffffff168152602001908152602001600020600084815260200190815260200160002081905550816008600083815260200190815260200160002081905550505b6008600084815260200190815260200160002060009055600760008573ffffffffffffffffffffffffffffffffffffffff1673ffffffffffffffffffffffffffffffffffffffff16815260200190815260200160002060008381526020019081526020016000206000905550505050565b60006001600980549050612ad891906140b7565b90506000600a6000848152602001908152602001600020549050600060098381548110612b2e577f4e487b7100000000000000000000000000000000000000000000000000000000600052603260045260246000fd5b906000526020600020015490508060098381548110612b76577f4e487b7100000000000000000000000000000000000000000000000000000000600052603260045260246000fd5b906000526020600020018190555081600a600083815260200190815260200160002081905550600a6000858152602001908152602001600020600090556009805480612beb577f4e487b7100000000000000000000000000000000000000000000000000000000600052603160045260246000fd5b6001900381819060005260206000200160009055905550505050565b6000612c128361112c565b905081600760008573ffffffffffffffffffffffffffffffffffffffff1673ffffffffffffffffffffffffffffffffffffffff168152602001908152602001600020600083815260200190815260200160002081905550806008600084815260200190815260200160002081905550505050565b600080823b905060008111915050919050565b828054612ca5906141f1565b90600052602060002090601f016020900481019282612cc75760008555612d0e565b82601f10612ce057805160ff1916838001178555612d0e565b82800160010185558215612d0e579182015b82811115612d0d578251825591602001919060010190612cf2565b5b509050612d1b9190612e53565b5090565b826009601f01602090048101928215612da85791602002820160005b83821115612d7957835183826101000a81548160ff021916908360ff1602179055509260200192600101602081600001049283019260010302612d3b565b8015612da65782816101000a81549060ff0219169055600101602081600001049283019260010302612d79565b505b509050612db59190612e53565b5090565b826006601f01602090048101928215612e425791602002820160005b83821115612e1357835183826101000a81548160ff021916908360ff1602179055509260200192600101602081600001049283019260010302612dd5565b8015612e405782816101000a81549060ff0219169055600101602081600001049283019260010302612e13565b505b509050612e4f9190612e53565b5090565b5b80821115612e6c576000816000905550600101612e54565b5090565b6000612e83612e7e84613f78565b613f47565b905082815260208101848484011115612e9b57600080fd5b612ea68482856141af565b509392505050565b6000612ec1612ebc84613fa8565b613f47565b905082815260208101848484011115612ed957600080fd5b612ee48482856141af565b509392505050565b600081359050612efb816143ad565b92915050565b600081359050612f10816143c4565b92915050565b600081359050612f25816143db565b92915050565b600081519050612f3a816143db565b92915050565b600082601f830112612f5157600080fd5b8135612f61848260208601612e70565b91505092915050565b600082601f830112612f7b57600080fd5b8135612f8b848260208601612eae565b91505092915050565b600081359050612fa3816143f2565b92915050565b600081359050612fb881614409565b92915050565b600060208284031215612fd057600080fd5b6000612fde84828501612eec565b91505092915050565b60008060408385031215612ffa57600080fd5b600061300885828601612eec565b925050602061301985828601612eec565b9150509250929050565b60008060006060848603121561303857600080fd5b600061304686828701612eec565b935050602061305786828701612eec565b925050604061306886828701612f94565b9150509250925092565b6000806000806080858703121561308857600080fd5b600061309687828801612eec565b94505060206130a787828801612eec565b93505060406130b887828801612f94565b925050606085013567ffffffffffffffff8111156130d557600080fd5b6130e187828801612f40565b91505092959194509250565b6000806040838503121561310057600080fd5b600061310e85828601612eec565b925050602061311f85828601612f01565b9150509250929050565b6000806040838503121561313c57600080fd5b600061314a85828601612eec565b925050602061315b85828601612f94565b9150509250929050565b60006020828403121561317757600080fd5b600061318584828501612f01565b91505092915050565b6000602082840312156131a057600080fd5b60006131ae84828501612f16565b91505092915050565b6000602082840312156131c957600080fd5b60006131d784828501612f2b565b91505092915050565b600080604083850312156131f357600080fd5b600083013567ffffffffffffffff81111561320d57600080fd5b61321985828601612f6a565b925050602061322a85828601612fa9565b9150509250929050565b60006020828403121561324657600080fd5b600061325484828501612f94565b91505092915050565b6000806040838503121561327057600080fd5b600061327e85828601612f94565b925050602061328f85828601612f94565b9150509250929050565b6132a2816140eb565b82525050565b6132b1816140fd565b82525050565b60006132c282613fed565b6132cc8185614003565b93506132dc8185602086016141be565b6132e581614388565b840191505092915050565b6132f98161419d565b82525050565b600061330a82613ff8565b6133148185614014565b93506133248185602086016141be565b61332d81614388565b840191505092915050565b600061334382613ff8565b61334d8185614025565b935061335d8185602086016141be565b80840191505092915050565b60008154613376816141f1565b6133808186614025565b9450600182166000811461339b57600181146133ac576133df565b60ff198316865281860193506133df565b6133b585613fd8565b60005b838110156133d7578154818901526001820191506020810190506133b8565b838801955050505b50505092915050565b60006133f5602b83614014565b91507f455243373231456e756d657261626c653a206f776e657220696e646578206f7560008301527f74206f6620626f756e64730000000000000000000000000000000000000000006020830152604082019050919050565b600061345b603283614014565b91507f4552433732313a207472616e7366657220746f206e6f6e20455243373231526560008301527f63656976657220696d706c656d656e74657200000000000000000000000000006020830152604082019050919050565b60006134c1602683614014565b91507f4f776e61626c653a206e6577206f776e657220697320746865207a65726f206160008301527f64647265737300000000000000000000000000000000000000000000000000006020830152604082019050919050565b6000613527601c83614014565b91507f4552433732313a20746f6b656e20616c7265616479206d696e746564000000006000830152602082019050919050565b6000613567602483614014565b91507f4552433732313a207472616e7366657220746f20746865207a65726f2061646460008301527f72657373000000000000000000000000000000000000000000000000000000006020830152604082019050919050565b60006135cd601983614014565b91507f4552433732313a20617070726f766520746f2063616c6c6572000000000000006000830152602082019050919050565b600061360d602c83614014565b91507f4552433732313a206f70657261746f7220717565727920666f72206e6f6e657860008301527f697374656e7420746f6b656e00000000000000000000000000000000000000006020830152604082019050919050565b6000613673603883614014565b91507f4552433732313a20617070726f76652063616c6c6572206973206e6f74206f7760008301527f6e6572206e6f7220617070726f76656420666f7220616c6c00000000000000006020830152604082019050919050565b60006136d9602a83614014565b91507f4552433732313a2062616c616e636520717565727920666f7220746865207a6560008301527f726f2061646472657373000000000000000000000000000000000000000000006020830152604082019050919050565b600061373f602983614014565b91507f4552433732313a206f776e657220717565727920666f72206e6f6e657869737460008301527f656e7420746f6b656e00000000000000000000000000000000000000000000006020830152604082019050919050565b60006137a5602083614014565b91507f4552433732313a206d696e7420746f20746865207a65726f20616464726573736000830152602082019050919050565b60006137e5602c83614014565b91507f4552433732313a20617070726f76656420717565727920666f72206e6f6e657860008301527f697374656e7420746f6b656e00000000000000000000000000000000000000006020830152604082019050919050565b600061384b602083614014565b91507f4f776e61626c653a2063616c6c6572206973206e6f7420746865206f776e65726000830152602082019050919050565b600061388b602983614014565b91507f4552433732313a207472616e73666572206f6620746f6b656e2074686174206960008301527f73206e6f74206f776e00000000000000000000000000000000000000000000006020830152604082019050919050565b60006138f1602f83614014565b91507f4552433732314d657461646174613a2055524920717565727920666f72206e6f60008301527f6e6578697374656e7420746f6b656e00000000000000000000000000000000006020830152604082019050919050565b6000613957602183614014565b91507f4552433732313a20617070726f76616c20746f2063757272656e74206f776e6560008301527f72000000000000000000000000000000000000000000000000000000000000006020830152604082019050919050565b60006139bd603183614014565b91507f4552433732313a207472616e736665722063616c6c6572206973206e6f74206f60008301527f776e6572206e6f7220617070726f7665640000000000000000000000000000006020830152604082019050919050565b6000613a23602c83614014565b91507f455243373231456e756d657261626c653a20676c6f62616c20696e646578206f60008301527f7574206f6620626f756e647300000000000000000000000000000000000000006020830152604082019050919050565b6000613a89602283614014565b91507f6f6e65206f776e65722063616e2068617665206d61782031302066696768746560008301527f72730000000000000000000000000000000000000000000000000000000000006020830152604082019050919050565b613aeb81614148565b82525050565b613afa81614176565b82525050565b613b0981614180565b82525050565b613b1881614190565b82525050565b6000613b2a8286613338565b9150613b368285613338565b9150613b428284613369565b9150819050949350505050565b6000602082019050613b646000830184613299565b92915050565b6000608082019050613b7f6000830187613299565b613b8c6020830186613299565b613b996040830185613af1565b8181036060830152613bab81846132b7565b905095945050505050565b6000602082019050613bcb60008301846132a8565b92915050565b60006020820190508181036000830152613beb81846132ff565b905092915050565b6000610140820190508181036000830152613c0e818d6132ff565b9050613c1d602083018c613b0f565b613c2a604083018b613b0f565b613c37606083018a613b0f565b613c446080830189613b0f565b613c5160a0830188613b00565b613c5e60c0830187613af1565b613c6b60e0830186613af1565b613c796101008301856132a8565b613c876101208301846132f0565b9b9a5050505050505050505050565b60006020820190508181036000830152613caf816133e8565b9050919050565b60006020820190508181036000830152613ccf8161344e565b9050919050565b60006020820190508181036000830152613cef816134b4565b9050919050565b60006020820190508181036000830152613d0f8161351a565b9050919050565b60006020820190508181036000830152613d2f8161355a565b9050919050565b60006020820190508181036000830152613d4f816135c0565b9050919050565b60006020820190508181036000830152613d6f81613600565b9050919050565b60006020820190508181036000830152613d8f81613666565b9050919050565b60006020820190508181036000830152613daf816136cc565b9050919050565b60006020820190508181036000830152613dcf81613732565b9050919050565b60006020820190508181036000830152613def81613798565b9050919050565b60006020820190508181036000830152613e0f816137d8565b9050919050565b60006020820190508181036000830152613e2f8161383e565b9050919050565b60006020820190508181036000830152613e4f8161387e565b9050919050565b60006020820190508181036000830152613e6f816138e4565b9050919050565b60006020820190508181036000830152613e8f8161394a565b9050919050565b60006020820190508181036000830152613eaf816139b0565b9050919050565b60006020820190508181036000830152613ecf81613a16565b9050919050565b60006020820190508181036000830152613eef81613a7c565b9050919050565b6000602082019050613f0b6000830184613ae2565b92915050565b6000602082019050613f266000830184613af1565b92915050565b6000602082019050613f416000830184613b0f565b92915050565b6000604051905081810181811067ffffffffffffffff82111715613f6e57613f6d614359565b5b8060405250919050565b600067ffffffffffffffff821115613f9357613f92614359565b5b601f19601f8301169050602081019050919050565b600067ffffffffffffffff821115613fc357613fc2614359565b5b601f19601f8301169050602081019050919050565b60008190508160005260206000209050919050565b600081519050919050565b600081519050919050565b600082825260208201905092915050565b600082825260208201905092915050565b600081905092915050565b600061403b82614176565b915061404683614176565b9250827fffffffffffffffffffffffffffffffffffffffffffffffffffffffffffffffff0382111561407b5761407a61429d565b5b828201905092915050565b600061409182614176565b915061409c83614176565b9250826140ac576140ab6142cc565b5b828204905092915050565b60006140c282614176565b91506140cd83614176565b9250828210156140e0576140df61429d565b5b828203905092915050565b60006140f682614156565b9050919050565b60008115159050919050565b60007fffffffff0000000000000000000000000000000000000000000000000000000082169050919050565b600081905061414382614399565b919050565b600061ffff82169050919050565b600073ffffffffffffffffffffffffffffffffffffffff82169050919050565b6000819050919050565b600063ffffffff82169050919050565b600060ff82169050919050565b60006141a882614135565b9050919050565b82818337600083830152505050565b60005b838110156141dc5780820151818401526020810190506141c1565b838111156141eb576000848401525b50505050565b6000600282049050600182168061420957607f821691505b6020821081141561421d5761421c61432a565b5b50919050565b600061422e82614176565b91507fffffffffffffffffffffffffffffffffffffffffffffffffffffffffffffffff8214156142615761426061429d565b5b600182019050919050565b600061427782614176565b915061428283614176565b925082614292576142916142cc565b5b828206905092915050565b7f4e487b7100000000000000000000000000000000000000000000000000000000600052601160045260246000fd5b7f4e487b7100000000000000000000000000000000000000000000000000000000600052601260045260246000fd5b7f4e487b7100000000000000000000000000000000000000000000000000000000600052602160045260246000fd5b7f4e487b7100000000000000000000000000000000000000000000000000000000600052602260045260246000fd5b7f4e487b7100000000000000000000000000000000000000000000000000000000600052604160045260246000fd5b6000601f19601f8301169050919050565b600581106143aa576143a96142fb565b5b50565b6143b6816140eb565b81146143c157600080fd5b50565b6143cd816140fd565b81146143d857600080fd5b50565b6143e481614109565b81146143ef57600080fd5b50565b6143fb81614176565b811461440657600080fd5b50565b61441281614190565b811461441d57600080fd5b5056fea264697066735822122015a2d9557c248863731079abd650e40dc5d9e50d65606c50919e5cce2b53e03864736f6c63430008000033697066733a2f2f516d4e716e72424148764b595963694779326d4b5a706b416e414a4a6f58426878327679554c6357483446696d392f",
  "linkReferences": {},
  "deployedLinkReferences": {}
}