{
  "_format": "hh-sol-artifact-1",
  "contractName": "FighterHelper",
  "sourceName": "contracts/fighter/fighterhelper.sol",
  "abi": [
    {
      "anonymous": false,
      "inputs": [
        {
          "indexed": true,
          "internalType": "address",
          "name": "owner",
          "type": "address"
        },
        {
          "indexed": true,
          "internalType": "address",
          "name": "approved",
          "type": "address"
        },
        {
          "indexed": true,
          "internalType": "uint256",
          "name": "tokenId",
          "type": "uint256"
        }
      ],
      "name": "Approval",
      "type": "event"
    },
    {
      "anonymous": false,
      "inputs": [
        {
          "indexed": true,
          "internalType": "address",
          "name": "owner",
          "type": "address"
        },
        {
          "indexed": true,
          "internalType": "address",
          "name": "operator",
          "type": "address"
        },
        {
          "indexed": false,
          "internalType": "bool",
          "name": "approved",
          "type": "bool"
        }
      ],
      "name": "ApprovalForAll",
      "type": "event"
    },
    {
      "anonymous": false,
      "inputs": [
        {
          "indexed": false,
          "internalType": "uint256",
          "name": "fighterId",
          "type": "uint256"
        }
      ],
      "name": "GotInjured",
      "type": "event"
    },
    {
      "anonymous": false,
      "inputs": [
        {
          "indexed": false,
          "internalType": "uint256",
          "name": "fighterId",
          "type": "uint256"
        },
        {
          "indexed": false,
          "internalType": "uint256",
          "name": "newLevel",
          "type": "uint256"
        }
      ],
      "name": "IncreasedLevel",
      "type": "event"
    },
    {
      "anonymous": false,
      "inputs": [
        {
          "indexed": false,
          "internalType": "uint256",
          "name": "fighterId",
          "type": "uint256"
        },
        {
          "indexed": false,
          "internalType": "string",
          "name": "name",
          "type": "string"
        },
        {
          "indexed": false,
          "internalType": "uint256",
          "name": "style",
          "type": "uint256"
        }
      ],
      "name": "NewFighter",
      "type": "event"
    },
    {
      "anonymous": false,
      "inputs": [
        {
          "indexed": true,
          "internalType": "address",
          "name": "previousOwner",
          "type": "address"
        },
        {
          "indexed": true,
          "internalType": "address",
          "name": "newOwner",
          "type": "address"
        }
      ],
      "name": "OwnershipTransferred",
      "type": "event"
    },
    {
      "anonymous": false,
      "inputs": [
        {
          "indexed": true,
          "internalType": "address",
          "name": "from",
          "type": "address"
        },
        {
          "indexed": true,
          "internalType": "address",
          "name": "to",
          "type": "address"
        },
        {
          "indexed": true,
          "internalType": "uint256",
          "name": "tokenId",
          "type": "uint256"
        }
      ],
      "name": "Transfer",
      "type": "event"
    },
    {
      "inputs": [
        {
          "internalType": "address",
          "name": "to",
          "type": "address"
        },
        {
          "internalType": "uint256",
          "name": "tokenId",
          "type": "uint256"
        }
      ],
      "name": "approve",
      "outputs": [],
      "stateMutability": "nonpayable",
      "type": "function"
    },
    {
      "inputs": [
        {
          "internalType": "address",
          "name": "owner",
          "type": "address"
        }
      ],
      "name": "balanceOf",
      "outputs": [
        {
          "internalType": "uint256",
          "name": "",
          "type": "uint256"
        }
      ],
      "stateMutability": "view",
      "type": "function"
    },
    {
      "inputs": [],
      "name": "baseExtension",
      "outputs": [
        {
          "internalType": "string",
          "name": "",
          "type": "string"
        }
      ],
      "stateMutability": "view",
      "type": "function"
    },
    {
      "inputs": [],
      "name": "baseURI",
      "outputs": [
        {
          "internalType": "string",
          "name": "",
          "type": "string"
        }
      ],
      "stateMutability": "view",
      "type": "function"
    },
    {
      "inputs": [
        {
          "internalType": "uint256",
          "name": "_fighterId",
          "type": "uint256"
        }
      ],
      "name": "checkIfRetired",
      "outputs": [
        {
          "internalType": "bool",
          "name": "",
          "type": "bool"
        }
      ],
      "stateMutability": "view",
      "type": "function"
    },
    {
      "inputs": [],
      "name": "cooldownTime",
      "outputs": [
        {
          "internalType": "uint16",
          "name": "",
          "type": "uint16"
        }
      ],
      "stateMutability": "view",
      "type": "function"
    },
    {
      "inputs": [],
      "name": "cost",
      "outputs": [
        {
          "internalType": "uint256",
          "name": "",
          "type": "uint256"
        }
      ],
      "stateMutability": "view",
      "type": "function"
    },
    {
      "inputs": [
        {
          "internalType": "string",
          "name": "_name",
          "type": "string"
        },
        {
          "internalType": "uint8",
          "name": "_style",
          "type": "uint8"
        }
      ],
      "name": "createFighter",
      "outputs": [
        {
          "internalType": "bool",
          "name": "",
          "type": "bool"
        }
      ],
      "stateMutability": "payable",
      "type": "function"
    },
    {
      "inputs": [
        {
          "internalType": "uint256",
          "name": "",
          "type": "uint256"
        }
      ],
      "name": "fighterIdToOwner",
      "outputs": [
        {
          "internalType": "address",
          "name": "",
          "type": "address"
        }
      ],
      "stateMutability": "view",
      "type": "function"
    },
    {
      "inputs": [
        {
          "internalType": "uint256",
          "name": "",
          "type": "uint256"
        }
      ],
      "name": "fighters",
      "outputs": [
        {
          "internalType": "string",
          "name": "name",
          "type": "string"
        },
        {
          "internalType": "uint8",
          "name": "weight",
          "type": "uint8"
        },
        {
          "internalType": "uint8",
          "name": "age",
          "type": "uint8"
        },
        {
          "internalType": "uint8",
          "name": "level",
          "type": "uint8"
        },
        {
          "internalType": "uint8",
          "name": "fightingStyle",
          "type": "uint8"
        },
        {
          "internalType": "uint32",
          "name": "xp",
          "type": "uint32"
        },
        {
          "internalType": "uint256",
          "name": "readyTime",
          "type": "uint256"
        },
        {
          "internalType": "uint256",
          "name": "id",
          "type": "uint256"
        },
        {
          "internalType": "bool",
          "name": "injured",
          "type": "bool"
        },
        {
          "internalType": "enum FighterFactory.pro_status",
          "name": "status",
          "type": "uint8"
        }
      ],
      "stateMutability": "view",
      "type": "function"
    },
    {
      "inputs": [
        {
          "internalType": "uint256",
          "name": "tokenId",
          "type": "uint256"
        }
      ],
      "name": "getApproved",
      "outputs": [
        {
          "internalType": "address",
          "name": "",
          "type": "address"
        }
      ],
      "stateMutability": "view",
      "type": "function"
    },
    {
      "inputs": [
        {
          "internalType": "uint256",
          "name": "_id",
          "type": "uint256"
        }
      ],
      "name": "getFighter",
      "outputs": [
        {
          "components": [
            {
              "internalType": "string",
              "name": "name",
              "type": "string"
            },
            {
              "internalType": "uint8",
              "name": "weight",
              "type": "uint8"
            },
            {
              "internalType": "uint8",
              "name": "age",
              "type": "uint8"
            },
            {
              "internalType": "uint8",
              "name": "level",
              "type": "uint8"
            },
            {
              "internalType": "uint8",
              "name": "fightingStyle",
              "type": "uint8"
            },
            {
              "internalType": "uint32",
              "name": "xp",
              "type": "uint32"
            },
            {
              "internalType": "uint256",
              "name": "readyTime",
              "type": "uint256"
            },
            {
              "internalType": "uint256",
              "name": "id",
              "type": "uint256"
            },
            {
              "internalType": "uint8[9]",
              "name": "stats",
              "type": "uint8[9]"
            },
            {
              "internalType": "uint8[6]",
              "name": "fightRecord",
              "type": "uint8[6]"
            },
            {
              "internalType": "bool",
              "name": "injured",
              "type": "bool"
            },
            {
              "internalType": "enum FighterFactory.pro_status",
              "name": "status",
              "type": "uint8"
            }
          ],
          "internalType": "struct FighterFactory.Fighter",
          "name": "",
          "type": "tuple"
        }
      ],
      "stateMutability": "view",
      "type": "function"
    },
    {
      "inputs": [
        {
          "internalType": "uint256",
          "name": "_fighterId",
          "type": "uint256"
        }
      ],
      "name": "getFighterStats",
      "outputs": [
        {
          "internalType": "uint8[9]",
          "name": "",
          "type": "uint8[9]"
        }
      ],
      "stateMutability": "view",
      "type": "function"
    },
    {
      "inputs": [
        {
          "internalType": "uint256",
          "name": "_fighterId",
          "type": "uint256"
        }
      ],
      "name": "getFighterStatus",
      "outputs": [
        {
          "internalType": "enum FighterFactory.pro_status",
          "name": "",
          "type": "uint8"
        }
      ],
      "stateMutability": "view",
      "type": "function"
    },
    {
      "inputs": [
        {
          "internalType": "uint256",
          "name": "_fighterId",
          "type": "uint256"
        }
      ],
      "name": "getFighterURI",
      "outputs": [
        {
          "internalType": "string",
          "name": "",
          "type": "string"
        }
      ],
      "stateMutability": "view",
      "type": "function"
    },
    {
      "inputs": [
        {
          "internalType": "uint256",
          "name": "_id",
          "type": "uint256"
        }
      ],
      "name": "getFightersRecord",
      "outputs": [
        {
          "internalType": "uint8[6]",
          "name": "",
          "type": "uint8[6]"
        }
      ],
      "stateMutability": "view",
      "type": "function"
    },
    {
      "inputs": [
        {
          "internalType": "address",
          "name": "owner",
          "type": "address"
        },
        {
          "internalType": "address",
          "name": "operator",
          "type": "address"
        }
      ],
      "name": "isApprovedForAll",
      "outputs": [
        {
          "internalType": "bool",
          "name": "",
          "type": "bool"
        }
      ],
      "stateMutability": "view",
      "type": "function"
    },
    {
      "inputs": [],
      "name": "name",
      "outputs": [
        {
          "internalType": "string",
          "name": "",
          "type": "string"
        }
      ],
      "stateMutability": "view",
      "type": "function"
    },
    {
      "inputs": [],
      "name": "owner",
      "outputs": [
        {
          "internalType": "address",
          "name": "",
          "type": "address"
        }
      ],
      "stateMutability": "view",
      "type": "function"
    },
    {
      "inputs": [
        {
          "internalType": "uint256",
          "name": "tokenId",
          "type": "uint256"
        }
      ],
      "name": "ownerOf",
      "outputs": [
        {
          "internalType": "address",
          "name": "",
          "type": "address"
        }
      ],
      "stateMutability": "view",
      "type": "function"
    },
    {
      "inputs": [
        {
          "internalType": "bool",
          "name": "_state",
          "type": "bool"
        }
      ],
      "name": "pause",
      "outputs": [],
      "stateMutability": "nonpayable",
      "type": "function"
    },
    {
      "inputs": [],
      "name": "paused",
      "outputs": [
        {
          "internalType": "bool",
          "name": "",
          "type": "bool"
        }
      ],
      "stateMutability": "view",
      "type": "function"
    },
    {
      "inputs": [],
      "name": "renounceOwnership",
      "outputs": [],
      "stateMutability": "nonpayable",
      "type": "function"
    },
    {
      "inputs": [
        {
          "internalType": "uint256",
          "name": "_fighterId",
          "type": "uint256"
        }
      ],
      "name": "retire",
      "outputs": [],
      "stateMutability": "nonpayable",
      "type": "function"
    },
    {
      "inputs": [
        {
          "internalType": "address",
          "name": "from",
          "type": "address"
        },
        {
          "internalType": "address",
          "name": "to",
          "type": "address"
        },
        {
          "internalType": "uint256",
          "name": "tokenId",
          "type": "uint256"
        }
      ],
      "name": "safeTransferFrom",
      "outputs": [],
      "stateMutability": "nonpayable",
      "type": "function"
    },
    {
      "inputs": [
        {
          "internalType": "address",
          "name": "from",
          "type": "address"
        },
        {
          "internalType": "address",
          "name": "to",
          "type": "address"
        },
        {
          "internalType": "uint256",
          "name": "tokenId",
          "type": "uint256"
        },
        {
          "internalType": "bytes",
          "name": "_data",
          "type": "bytes"
        }
      ],
      "name": "safeTransferFrom",
      "outputs": [],
      "stateMutability": "nonpayable",
      "type": "function"
    },
    {
      "inputs": [
        {
          "internalType": "uint256",
          "name": "",
          "type": "uint256"
        },
        {
          "internalType": "uint256",
          "name": "",
          "type": "uint256"
        }
      ],
      "name": "selectedStyle",
      "outputs": [
        {
          "internalType": "uint8",
          "name": "",
          "type": "uint8"
        }
      ],
      "stateMutability": "view",
      "type": "function"
    },
    {
      "inputs": [
        {
          "internalType": "address",
          "name": "operator",
          "type": "address"
        },
        {
          "internalType": "bool",
          "name": "approved",
          "type": "bool"
        }
      ],
      "name": "setApprovalForAll",
      "outputs": [],
      "stateMutability": "nonpayable",
      "type": "function"
    },
    {
      "inputs": [
        {
          "internalType": "bytes4",
          "name": "interfaceId",
          "type": "bytes4"
        }
      ],
      "name": "supportsInterface",
      "outputs": [
        {
          "internalType": "bool",
          "name": "",
          "type": "bool"
        }
      ],
      "stateMutability": "view",
      "type": "function"
    },
    {
      "inputs": [],
      "name": "symbol",
      "outputs": [
        {
          "internalType": "string",
          "name": "",
          "type": "string"
        }
      ],
      "stateMutability": "view",
      "type": "function"
    },
    {
      "inputs": [
        {
          "internalType": "uint256",
          "name": "index",
          "type": "uint256"
        }
      ],
      "name": "tokenByIndex",
      "outputs": [
        {
          "internalType": "uint256",
          "name": "",
          "type": "uint256"
        }
      ],
      "stateMutability": "view",
      "type": "function"
    },
    {
      "inputs": [
        {
          "internalType": "address",
          "name": "owner",
          "type": "address"
        },
        {
          "internalType": "uint256",
          "name": "index",
          "type": "uint256"
        }
      ],
      "name": "tokenOfOwnerByIndex",
      "outputs": [
        {
          "internalType": "uint256",
          "name": "",
          "type": "uint256"
        }
      ],
      "stateMutability": "view",
      "type": "function"
    },
    {
      "inputs": [
        {
          "internalType": "uint256",
          "name": "tokenId",
          "type": "uint256"
        }
      ],
      "name": "tokenURI",
      "outputs": [
        {
          "internalType": "string",
          "name": "",
          "type": "string"
        }
      ],
      "stateMutability": "view",
      "type": "function"
    },
    {
      "inputs": [],
      "name": "totalSupply",
      "outputs": [
        {
          "internalType": "uint256",
          "name": "",
          "type": "uint256"
        }
      ],
      "stateMutability": "view",
      "type": "function"
    },
    {
      "inputs": [
        {
          "internalType": "address",
          "name": "_to",
          "type": "address"
        },
        {
          "internalType": "uint256",
          "name": "_fighterId",
          "type": "uint256"
        }
      ],
      "name": "transferFighter",
      "outputs": [],
      "stateMutability": "nonpayable",
      "type": "function"
    },
    {
      "inputs": [
        {
          "internalType": "address",
          "name": "from",
          "type": "address"
        },
        {
          "internalType": "address",
          "name": "to",
          "type": "address"
        },
        {
          "internalType": "uint256",
          "name": "tokenId",
          "type": "uint256"
        }
      ],
      "name": "transferFrom",
      "outputs": [],
      "stateMutability": "nonpayable",
      "type": "function"
    },
    {
      "inputs": [
        {
          "internalType": "address",
          "name": "newOwner",
          "type": "address"
        }
      ],
      "name": "transferOwnership",
      "outputs": [],
      "stateMutability": "nonpayable",
      "type": "function"
    },
    {
      "inputs": [],
      "name": "withdraw",
      "outputs": [],
      "stateMutability": "payable",
      "type": "function"
    }
  ],
  "bytecode": "0x60806040526040518060400160405280600581526020017f2e6a736f6e000000000000000000000000000000000000000000000000000000815250600c9080519060200190620000519291906200057b565b50614650600d60006101000a81548161ffff021916908361ffff16021790555067016345785d8a0000600e556000600f60006101000a81548160ff0219169083151502179055506000601455348015620000aa57600080fd5b506040518060400160405280601181526020017f554643727970746f2046696768746572730000000000000000000000000000008152506040518060400160405280600681526020017f4647485445520000000000000000000000000000000000000000000000000000815250620001376200012b620004af60201b60201c565b620004b760201b60201c565b81600190805190602001906200014f9291906200057b565b508060029080519060200190620001689291906200057b565b5050506040518060600160405280603681526020016200598360369139600b90805190602001906200019c9291906200057b565b506013604051806101200160405280600d60ff168152602001600b60ff168152602001600a60ff168152602001600960ff168152602001600360ff168152602001600a60ff168152602001600f60ff168152602001600260ff168152602001600260ff1681525090806001815401808255809150506001900390600052602060002001600090919091909150906009620002389291906200060c565b506013604051806101200160405280600b60ff168152602001600d60ff168152602001600a60ff168152602001600960ff168152602001600260ff168152602001600f60ff168152602001600a60ff168152602001600360ff168152602001600260ff1681525090806001815401808255809150506001900390600052602060002001600090919091909150906009620002d49291906200060c565b506013604051806101200160405280600960ff168152602001600c60ff168152602001600a60ff168152602001600c60ff168152602001600b60ff168152602001600160ff168152602001600260ff168152602001600f60ff168152602001600360ff1681525090806001815401808255809150506001900390600052602060002001600090919091909150906009620003709291906200060c565b506013604051806101200160405280600860ff168152602001600a60ff168152602001600a60ff168152602001600b60ff168152602001600d60ff168152602001600160ff168152602001600160ff168152602001600b60ff168152602001600a60ff16815250908060018154018082558091505060019003906000526020600020016000909190919091509060096200040c9291906200060c565b506013604051806101200160405280600860ff168152602001600960ff168152602001600a60ff168152602001600960ff168152602001600860ff168152602001600860ff168152602001600860ff168152602001600860ff168152602001600860ff1681525090806001815401808255809150506001900390600052602060002001600090919091909150906009620004a89291906200060c565b5062000731565b600033905090565b60008060009054906101000a900473ffffffffffffffffffffffffffffffffffffffff169050816000806101000a81548173ffffffffffffffffffffffffffffffffffffffff021916908373ffffffffffffffffffffffffffffffffffffffff1602179055508173ffffffffffffffffffffffffffffffffffffffff168173ffffffffffffffffffffffffffffffffffffffff167f8be0079c531659141344cd1fd0a4f28419497f9722a3daafe3b4186f6b6457e060405160405180910390a35050565b8280546200058990620006cc565b90600052602060002090601f016020900481019282620005ad5760008555620005f9565b82601f10620005c857805160ff1916838001178555620005f9565b82800160010185558215620005f9579182015b82811115620005f8578251825591602001919060010190620005db565b5b509050620006089190620006ad565b5090565b826009601f016020900481019282156200069a5791602002820160005b838211156200066957835183826101000a81548160ff021916908360ff160217905550926020019260010160208160000104928301926001030262000629565b8015620006985782816101000a81549060ff021916905560010160208160000104928301926001030262000669565b505b509050620006a99190620006ad565b5090565b5b80821115620006c8576000816000905550600101620006ae565b5090565b60006002820490506001821680620006e557607f821691505b60208210811415620006fc57620006fb62000702565b5b50919050565b7f4e487b7100000000000000000000000000000000000000000000000000000000600052602260045260246000fd5b61524280620007416000396000f3fe6080604052600436106102255760003560e01c80635c975abb11610123578063a22cb465116100ab578063d57dde891161006f578063d57dde8914610875578063e5cbb693146108b2578063e985e9c5146108e2578063f00a9f7b1461091f578063f2fde38b1461095c57610225565b8063a22cb46514610790578063b319c6b7146107b9578063b88d4fde146107e4578063c66828621461080d578063c87b56dd1461083857610225565b8063715018a6116100f2578063715018a6146106a957806379e3b28a146106c0578063889fa1dc146106fd5780638da5cb5b1461073a57806395d89b411461076557610225565b80635c975abb146105d95780636352211e146106045780636c0360eb1461064157806370a082311461066c57610225565b80632f745c59116101b157806343d514f11161017557806343d514f1146104bc5780634b193933146104f95780634f6ccce71461053657806355af86c414610573578063590ad697146105b057610225565b80632f745c59146103e65780633790cf57146104235780633ccfd60b1461044c57806342842e0e1461045657806342f22a241461047f57610225565b8063095ea7b3116101f8578063095ea7b3146102f857806313faede61461032157806318160ddd1461034c57806323b872dd146103775780632e6b221d146103a057610225565b806301ffc9a71461022a57806302329a291461026757806306fdde0314610290578063081812fc146102bb575b600080fd5b34801561023657600080fd5b50610251600480360381019061024c9190613b03565b610985565b60405161025e91906148c4565b60405180910390f35b34801561027357600080fd5b5061028e60048036038101906102899190613ada565b6109ff565b005b34801561029c57600080fd5b506102a5610a98565b6040516102b291906148fa565b60405180910390f35b3480156102c757600080fd5b506102e260048036038101906102dd9190613ba9565b610b2a565b6040516102ef9190614826565b60405180910390f35b34801561030457600080fd5b5061031f600480360381019061031a9190613a9e565b610baf565b005b34801561032d57600080fd5b50610336610cc7565b6040516103439190614c7c565b60405180910390f35b34801561035857600080fd5b50610361610ccd565b60405161036e9190614c7c565b60405180910390f35b34801561038357600080fd5b5061039e60048036038101906103999190613998565b610cda565b005b3480156103ac57600080fd5b506103c760048036038101906103c29190613ba9565b610d3a565b6040516103dd9a9998979695949392919061491c565b60405180910390f35b3480156103f257600080fd5b5061040d60048036038101906104089190613a9e565b610e74565b60405161041a9190614c7c565b60405180910390f35b34801561042f57600080fd5b5061044a60048036038101906104459190613ba9565b610f19565b005b610454611030565b005b34801561046257600080fd5b5061047d60048036038101906104789190613998565b6110ec565b005b34801561048b57600080fd5b506104a660048036038101906104a19190613ba9565b61110c565b6040516104b391906148fa565b60405180910390f35b3480156104c857600080fd5b506104e360048036038101906104de9190613bd2565b6111b1565b6040516104f09190614c97565b60405180910390f35b34801561050557600080fd5b50610520600480360381019061051b9190613ba9565b6111f6565b60405161052d9190614826565b60405180910390f35b34801561054257600080fd5b5061055d60048036038101906105589190613ba9565b611229565b60405161056a9190614c7c565b60405180910390f35b34801561057f57600080fd5b5061059a60048036038101906105959190613ba9565b6112c0565b6040516105a791906148a8565b60405180910390f35b3480156105bc57600080fd5b506105d760048036038101906105d29190613a9e565b611347565b005b3480156105e557600080fd5b506105ee6113ce565b6040516105fb91906148c4565b60405180910390f35b34801561061057600080fd5b5061062b60048036038101906106269190613ba9565b6113e1565b6040516106389190614826565b60405180910390f35b34801561064d57600080fd5b50610656611493565b60405161066391906148fa565b60405180910390f35b34801561067857600080fd5b50610693600480360381019061068e9190613933565b611521565b6040516106a09190614c7c565b60405180910390f35b3480156106b557600080fd5b506106be6115d9565b005b3480156106cc57600080fd5b506106e760048036038101906106e29190613ba9565b611661565b6040516106f491906148c4565b60405180910390f35b34801561070957600080fd5b50610724600480360381019061071f9190613ba9565b611749565b6040516107319190614c3f565b60405180910390f35b34801561074657600080fd5b5061074f611a2f565b60405161075c9190614826565b60405180910390f35b34801561077157600080fd5b5061077a611a58565b60405161078791906148fa565b60405180910390f35b34801561079c57600080fd5b506107b760048036038101906107b29190613a62565b611aea565b005b3480156107c557600080fd5b506107ce611b00565b6040516107db9190614c61565b60405180910390f35b3480156107f057600080fd5b5061080b600480360381019061080691906139e7565b611b14565b005b34801561081957600080fd5b50610822611b76565b60405161082f91906148fa565b60405180910390f35b34801561084457600080fd5b5061085f600480360381019061085a9190613ba9565b611c04565b60405161086c91906148fa565b60405180910390f35b34801561088157600080fd5b5061089c60048036038101906108979190613ba9565b611d31565b6040516108a9919061488d565b60405180910390f35b6108cc60048036038101906108c79190613b55565b611db8565b6040516108d991906148c4565b60405180910390f35b3480156108ee57600080fd5b506109096004803603810190610904919061395c565b612161565b60405161091691906148c4565b60405180910390f35b34801561092b57600080fd5b5061094660048036038101906109419190613ba9565b6121f5565b60405161095391906148df565b60405180910390f35b34801561096857600080fd5b50610983600480360381019061097e9190613933565b612222565b005b60007f780e9d63000000000000000000000000000000000000000000000000000000007bffffffffffffffffffffffffffffffffffffffffffffffffffffffff1916827bffffffffffffffffffffffffffffffffffffffffffffffffffffffff191614806109f857506109f78261231a565b5b9050919050565b610a076123fc565b73ffffffffffffffffffffffffffffffffffffffff16610a25611a2f565b73ffffffffffffffffffffffffffffffffffffffff1614610a7b576040517f08c379a0000000000000000000000000000000000000000000000000000000008152600401610a7290614b5f565b60405180910390fd5b80600f60006101000a81548160ff02191690831515021790555050565b606060018054610aa790614fdd565b80601f0160208091040260200160405190810160405280929190818152602001828054610ad390614fdd565b8015610b205780601f10610af557610100808354040283529160200191610b20565b820191906000526020600020905b815481529060010190602001808311610b0357829003601f168201915b5050505050905090565b6000610b3582612404565b610b74576040517f08c379a0000000000000000000000000000000000000000000000000000000008152600401610b6b90614b3f565b60405180910390fd5b6005600083815260200190815260200160002060009054906101000a900473ffffffffffffffffffffffffffffffffffffffff169050919050565b6000610bba826113e1565b90508073ffffffffffffffffffffffffffffffffffffffff168373ffffffffffffffffffffffffffffffffffffffff161415610c2b576040517f08c379a0000000000000000000000000000000000000000000000000000000008152600401610c2290614bbf565b60405180910390fd5b8073ffffffffffffffffffffffffffffffffffffffff16610c4a6123fc565b73ffffffffffffffffffffffffffffffffffffffff161480610c795750610c7881610c736123fc565b612161565b5b610cb8576040517f08c379a0000000000000000000000000000000000000000000000000000000008152600401610caf90614abf565b60405180910390fd5b610cc28383612470565b505050565b600e5481565b6000600980549050905090565b610ceb610ce56123fc565b82612529565b610d2a576040517f08c379a0000000000000000000000000000000000000000000000000000000008152600401610d2190614bdf565b60405180910390fd5b610d35838383612607565b505050565b6010602052806000526040600020600091509050806000018054610d5d90614fdd565b80601f0160208091040260200160405190810160405280929190818152602001828054610d8990614fdd565b8015610dd65780601f10610dab57610100808354040283529160200191610dd6565b820191906000526020600020905b815481529060010190602001808311610db957829003601f168201915b5050505050908060010160009054906101000a900460ff16908060010160019054906101000a900460ff16908060010160029054906101000a900460ff16908060010160039054906101000a900460ff16908060010160049054906101000a900463ffffffff16908060020154908060030154908060060160009054906101000a900460ff16908060060160019054906101000a900460ff1690508a565b6000610e7f83611521565b8210610ec0576040517f08c379a0000000000000000000000000000000000000000000000000000000008152600401610eb7906149df565b60405180910390fd5b600760008473ffffffffffffffffffffffffffffffffffffffff1673ffffffffffffffffffffffffffffffffffffffff168152602001908152602001600020600083815260200190815260200160002054905092915050565b80610f23816113e1565b73ffffffffffffffffffffffffffffffffffffffff163373ffffffffffffffffffffffffffffffffffffffff1614610f90576040517f08c379a0000000000000000000000000000000000000000000000000000000008152600401610f87906149bf565b60405180910390fd5b600480811115610fc9577f4e487b7100000000000000000000000000000000000000000000000000000000600052602160045260246000fd5b6010600084815260200190815260200160002060060160016101000a81548160ff02191690836004811115611027577f4e487b7100000000000000000000000000000000000000000000000000000000600052602160045260246000fd5b02179055505050565b6110386123fc565b73ffffffffffffffffffffffffffffffffffffffff16611056611a2f565b73ffffffffffffffffffffffffffffffffffffffff16146110ac576040517f08c379a00000000000000000000000000000000000000000000000000000000081526004016110a390614b5f565b60405180910390fd5b3373ffffffffffffffffffffffffffffffffffffffff166108fc479081150290604051600060405180830381858888f193505050506110ea57600080fd5b565b61110783838360405180602001604052806000815250611b14565b505050565b606060126000838152602001908152602001600020805461112c90614fdd565b80601f016020809104026020016040519081016040528092919081815260200182805461115890614fdd565b80156111a55780601f1061117a576101008083540402835291602001916111a5565b820191906000526020600020905b81548152906001019060200180831161118857829003601f168201915b50505050509050919050565b601382815481106111c157600080fd5b9060005260206000200181600981106111d957600080fd5b60209182820401919006915091509054906101000a900460ff1681565b60116020528060005260406000206000915054906101000a900473ffffffffffffffffffffffffffffffffffffffff1681565b6000611233610ccd565b8210611274576040517f08c379a000000000000000000000000000000000000000000000000000000000815260040161126b90614bff565b60405180910390fd5b600982815481106112ae577f4e487b7100000000000000000000000000000000000000000000000000000000600052603260045260246000fd5b90600052602060002001549050919050565b6112c8613510565b6010600083815260200190815260200160002060040160098060200260405190810160405280929190826009801561133b576020028201916000905b82829054906101000a900460ff1660ff16815260200190600101906020826000010492830192600103820291508084116113045790505b50505050509050919050565b80611351816113e1565b73ffffffffffffffffffffffffffffffffffffffff163373ffffffffffffffffffffffffffffffffffffffff16146113be576040517f08c379a00000000000000000000000000000000000000000000000000000000081526004016113b5906149bf565b60405180910390fd5b6113c9338484612607565b505050565b600f60009054906101000a900460ff1681565b6000806003600084815260200190815260200160002060009054906101000a900473ffffffffffffffffffffffffffffffffffffffff169050600073ffffffffffffffffffffffffffffffffffffffff168173ffffffffffffffffffffffffffffffffffffffff16141561148a576040517f08c379a000000000000000000000000000000000000000000000000000000000815260040161148190614aff565b60405180910390fd5b80915050919050565b600b80546114a090614fdd565b80601f01602080910402602001604051908101604052809291908181526020018280546114cc90614fdd565b80156115195780601f106114ee57610100808354040283529160200191611519565b820191906000526020600020905b8154815290600101906020018083116114fc57829003601f168201915b505050505081565b60008073ffffffffffffffffffffffffffffffffffffffff168273ffffffffffffffffffffffffffffffffffffffff161415611592576040517f08c379a000000000000000000000000000000000000000000000000000000000815260040161158990614adf565b60405180910390fd5b600460008373ffffffffffffffffffffffffffffffffffffffff1673ffffffffffffffffffffffffffffffffffffffff168152602001908152602001600020549050919050565b6115e16123fc565b73ffffffffffffffffffffffffffffffffffffffff166115ff611a2f565b73ffffffffffffffffffffffffffffffffffffffff1614611655576040517f08c379a000000000000000000000000000000000000000000000000000000000815260040161164c90614b5f565b60405180910390fd5b61165f6000612863565b565b600060048081111561169c577f4e487b7100000000000000000000000000000000000000000000000000000000600052602160045260246000fd5b60048111156116d4577f4e487b7100000000000000000000000000000000000000000000000000000000600052602160045260246000fd5b6010600084815260200190815260200160002060060160019054906101000a900460ff166004811115611730577f4e487b7100000000000000000000000000000000000000000000000000000000600052602160045260246000fd5b141561173f5760019050611744565b600090505b919050565b611751613533565b601060008381526020019081526020016000206040518061018001604052908160008201805461178090614fdd565b80601f01602080910402602001604051908101604052809291908181526020018280546117ac90614fdd565b80156117f95780601f106117ce576101008083540402835291602001916117f9565b820191906000526020600020905b8154815290600101906020018083116117dc57829003601f168201915b505050505081526020016001820160009054906101000a900460ff1660ff1660ff1681526020016001820160019054906101000a900460ff1660ff1660ff1681526020016001820160029054906101000a900460ff1660ff1660ff1681526020016001820160039054906101000a900460ff1660ff1660ff1681526020016001820160049054906101000a900463ffffffff1663ffffffff1663ffffffff168152602001600282015481526020016003820154815260200160048201600980602002604051908101604052809291908260098015611912576020028201916000905b82829054906101000a900460ff1660ff16815260200190600101906020826000010492830192600103820291508084116118db5790505b505050505081526020016005820160068060200260405190810160405280929190826006801561197d576020028201916000905b82829054906101000a900460ff1660ff16815260200190600101906020826000010492830192600103820291508084116119465790505b505050505081526020016006820160009054906101000a900460ff161515151581526020016006820160019054906101000a900460ff1660048111156119ec577f4e487b7100000000000000000000000000000000000000000000000000000000600052602160045260246000fd5b6004811115611a24577f4e487b7100000000000000000000000000000000000000000000000000000000600052602160045260246000fd5b815250509050919050565b60008060009054906101000a900473ffffffffffffffffffffffffffffffffffffffff16905090565b606060028054611a6790614fdd565b80601f0160208091040260200160405190810160405280929190818152602001828054611a9390614fdd565b8015611ae05780601f10611ab557610100808354040283529160200191611ae0565b820191906000526020600020905b815481529060010190602001808311611ac357829003601f168201915b5050505050905090565b611afc611af56123fc565b8383612927565b5050565b600d60009054906101000a900461ffff1681565b611b25611b1f6123fc565b83612529565b611b64576040517f08c379a0000000000000000000000000000000000000000000000000000000008152600401611b5b90614bdf565b60405180910390fd5b611b7084848484612a94565b50505050565b600c8054611b8390614fdd565b80601f0160208091040260200160405190810160405280929190818152602001828054611baf90614fdd565b8015611bfc5780601f10611bd157610100808354040283529160200191611bfc565b820191906000526020600020905b815481529060010190602001808311611bdf57829003601f168201915b505050505081565b6060611c0f82612404565b611c4e576040517f08c379a0000000000000000000000000000000000000000000000000000000008152600401611c4590614b9f565b60405180910390fd5b6000600b8054611c5d90614fdd565b80601f0160208091040260200160405190810160405280929190818152602001828054611c8990614fdd565b8015611cd65780601f10611cab57610100808354040283529160200191611cd6565b820191906000526020600020905b815481529060010190602001808311611cb957829003601f168201915b505050505090506000815111611cfb5760405180602001604052806000815250611d29565b80611d0584612af0565b600c604051602001611d19939291906147f5565b6040516020818303038152906040525b915050919050565b611d396135ec565b60106000838152602001908152602001600020600501600680602002604051908101604052809291908260068015611dac576020028201916000905b82829054906101000a900460ff1660ff1681526020019060010190602082600001049283019260010382029150808411611d755790505b50505050509050919050565b6000600a611dc533611521565b10611e05576040517f08c379a0000000000000000000000000000000000000000000000000000000008152600401611dfc90614c1f565b60405180910390fd5b600e54341015611e1457600080fd5b6000611e1e610ccd565b905060405180610180016040528085815260200160aa60ff168152602001601260ff168152602001600160ff1681526020018460ff168152602001600063ffffffff16815260200142815260200182815260200160138560ff1681548110611eaf577f4e487b7100000000000000000000000000000000000000000000000000000000600052603260045260246000fd5b90600052602060002001600980602002604051908101604052809291908260098015611f16576020028201916000905b82829054906101000a900460ff1660ff1681526020019060010190602082600001049283019260010382029150808411611edf5790505b505050505081526020016040518060c00160405280600060ff168152602001600060ff168152602001600060ff168152602001600060ff168152602001600060ff168152602001600060ff16815250815260200160001515815260200160006004811115611fad577f4e487b7100000000000000000000000000000000000000000000000000000000600052602160045260246000fd5b815250601060008381526020019081526020016000206000820151816000019080519060200190611fdf92919061360e565b5060208201518160010160006101000a81548160ff021916908360ff16021790555060408201518160010160016101000a81548160ff021916908360ff16021790555060608201518160010160026101000a81548160ff021916908360ff16021790555060808201518160010160036101000a81548160ff021916908360ff16021790555060a08201518160010160046101000a81548163ffffffff021916908363ffffffff16021790555060c0820151816002015560e08201518160030155610100820151816004019060096120b7929190613694565b50610120820151816005019060066120d092919061372e565b506101408201518160060160006101000a81548160ff0219169083151502179055506101608201518160060160016101000a81548160ff02191690836004811115612144577f4e487b7100000000000000000000000000000000000000000000000000000000600052602160045260246000fd5b02179055509050506121563382612c9d565b600191505092915050565b6000600660008473ffffffffffffffffffffffffffffffffffffffff1673ffffffffffffffffffffffffffffffffffffffff16815260200190815260200160002060008373ffffffffffffffffffffffffffffffffffffffff1673ffffffffffffffffffffffffffffffffffffffff16815260200190815260200160002060009054906101000a900460ff16905092915050565b60006010600083815260200190815260200160002060060160019054906101000a900460ff169050919050565b61222a6123fc565b73ffffffffffffffffffffffffffffffffffffffff16612248611a2f565b73ffffffffffffffffffffffffffffffffffffffff161461229e576040517f08c379a000000000000000000000000000000000000000000000000000000000815260040161229590614b5f565b60405180910390fd5b600073ffffffffffffffffffffffffffffffffffffffff168173ffffffffffffffffffffffffffffffffffffffff16141561230e576040517f08c379a000000000000000000000000000000000000000000000000000000000815260040161230590614a1f565b60405180910390fd5b61231781612863565b50565b60007f80ac58cd000000000000000000000000000000000000000000000000000000007bffffffffffffffffffffffffffffffffffffffffffffffffffffffff1916827bffffffffffffffffffffffffffffffffffffffffffffffffffffffff191614806123e557507f5b5e139f000000000000000000000000000000000000000000000000000000007bffffffffffffffffffffffffffffffffffffffffffffffffffffffff1916827bffffffffffffffffffffffffffffffffffffffffffffffffffffffff1916145b806123f557506123f482612e6b565b5b9050919050565b600033905090565b60008073ffffffffffffffffffffffffffffffffffffffff166003600084815260200190815260200160002060009054906101000a900473ffffffffffffffffffffffffffffffffffffffff1673ffffffffffffffffffffffffffffffffffffffff1614159050919050565b816005600083815260200190815260200160002060006101000a81548173ffffffffffffffffffffffffffffffffffffffff021916908373ffffffffffffffffffffffffffffffffffffffff160217905550808273ffffffffffffffffffffffffffffffffffffffff166124e3836113e1565b73ffffffffffffffffffffffffffffffffffffffff167f8c5be1e5ebec7d5bd14f71427d1e84f3dd0314c0f7b2291e5b200ac8c7c3b92560405160405180910390a45050565b600061253482612404565b612573576040517f08c379a000000000000000000000000000000000000000000000000000000000815260040161256a90614a9f565b60405180910390fd5b600061257e836113e1565b90508073ffffffffffffffffffffffffffffffffffffffff168473ffffffffffffffffffffffffffffffffffffffff1614806125ed57508373ffffffffffffffffffffffffffffffffffffffff166125d584610b2a565b73ffffffffffffffffffffffffffffffffffffffff16145b806125fe57506125fd8185612161565b5b91505092915050565b8273ffffffffffffffffffffffffffffffffffffffff16612627826113e1565b73ffffffffffffffffffffffffffffffffffffffff161461267d576040517f08c379a000000000000000000000000000000000000000000000000000000000815260040161267490614b7f565b60405180910390fd5b600073ffffffffffffffffffffffffffffffffffffffff168273ffffffffffffffffffffffffffffffffffffffff1614156126ed576040517f08c379a00000000000000000000000000000000000000000000000000000000081526004016126e490614a5f565b60405180910390fd5b6126f8838383612ed5565b612703600082612470565b6001600460008573ffffffffffffffffffffffffffffffffffffffff1673ffffffffffffffffffffffffffffffffffffffff16815260200190815260200160002060008282546127539190614ea3565b925050819055506001600460008473ffffffffffffffffffffffffffffffffffffffff1673ffffffffffffffffffffffffffffffffffffffff16815260200190815260200160002060008282546127aa9190614e1c565b92505081905550816003600083815260200190815260200160002060006101000a81548173ffffffffffffffffffffffffffffffffffffffff021916908373ffffffffffffffffffffffffffffffffffffffff160217905550808273ffffffffffffffffffffffffffffffffffffffff168473ffffffffffffffffffffffffffffffffffffffff167fddf252ad1be2c89b69c2b068fc378daa952ba7f163c4a11628f55a4df523b3ef60405160405180910390a4505050565b60008060009054906101000a900473ffffffffffffffffffffffffffffffffffffffff169050816000806101000a81548173ffffffffffffffffffffffffffffffffffffffff021916908373ffffffffffffffffffffffffffffffffffffffff1602179055508173ffffffffffffffffffffffffffffffffffffffff168173ffffffffffffffffffffffffffffffffffffffff167f8be0079c531659141344cd1fd0a4f28419497f9722a3daafe3b4186f6b6457e060405160405180910390a35050565b8173ffffffffffffffffffffffffffffffffffffffff168373ffffffffffffffffffffffffffffffffffffffff161415612996576040517f08c379a000000000000000000000000000000000000000000000000000000000815260040161298d90614a7f565b60405180910390fd5b80600660008573ffffffffffffffffffffffffffffffffffffffff1673ffffffffffffffffffffffffffffffffffffffff16815260200190815260200160002060008473ffffffffffffffffffffffffffffffffffffffff1673ffffffffffffffffffffffffffffffffffffffff16815260200190815260200160002060006101000a81548160ff0219169083151502179055508173ffffffffffffffffffffffffffffffffffffffff168373ffffffffffffffffffffffffffffffffffffffff167f17307eab39ab6107e8899845ad3d59bd9653f200f220920489ca2b5937696c3183604051612a8791906148c4565b60405180910390a3505050565b612a9f848484612607565b612aab84848484612fe9565b612aea576040517f08c379a0000000000000000000000000000000000000000000000000000000008152600401612ae1906149ff565b60405180910390fd5b50505050565b60606000821415612b38576040518060400160405280600181526020017f30000000000000000000000000000000000000000000000000000000000000008152509050612c98565b600082905060005b60008214612b6a578080612b539061500f565b915050600a82612b639190614e72565b9150612b40565b60008167ffffffffffffffff811115612bac577f4e487b7100000000000000000000000000000000000000000000000000000000600052604160045260246000fd5b6040519080825280601f01601f191660200182016040528015612bde5781602001600182028036833780820191505090505b5090505b60008514612c9157600182612bf79190614ea3565b9150600a85612c069190615058565b6030612c129190614e1c565b60f81b818381518110612c4e577f4e487b7100000000000000000000000000000000000000000000000000000000600052603260045260246000fd5b60200101907effffffffffffffffffffffffffffffffffffffffffffffffffffffffffffff1916908160001a905350600a85612c8a9190614e72565b9450612be2565b8093505050505b919050565b600073ffffffffffffffffffffffffffffffffffffffff168273ffffffffffffffffffffffffffffffffffffffff161415612d0d576040517f08c379a0000000000000000000000000000000000000000000000000000000008152600401612d0490614b1f565b60405180910390fd5b612d1681612404565b15612d56576040517f08c379a0000000000000000000000000000000000000000000000000000000008152600401612d4d90614a3f565b60405180910390fd5b612d6260008383612ed5565b6001600460008473ffffffffffffffffffffffffffffffffffffffff1673ffffffffffffffffffffffffffffffffffffffff1681526020019081526020016000206000828254612db29190614e1c565b92505081905550816003600083815260200190815260200160002060006101000a81548173ffffffffffffffffffffffffffffffffffffffff021916908373ffffffffffffffffffffffffffffffffffffffff160217905550808273ffffffffffffffffffffffffffffffffffffffff16600073ffffffffffffffffffffffffffffffffffffffff167fddf252ad1be2c89b69c2b068fc378daa952ba7f163c4a11628f55a4df523b3ef60405160405180910390a45050565b60007f01ffc9a7000000000000000000000000000000000000000000000000000000007bffffffffffffffffffffffffffffffffffffffffffffffffffffffff1916827bffffffffffffffffffffffffffffffffffffffffffffffffffffffff1916149050919050565b612ee0838383613180565b600073ffffffffffffffffffffffffffffffffffffffff168373ffffffffffffffffffffffffffffffffffffffff161415612f2357612f1e81613185565b612f62565b8173ffffffffffffffffffffffffffffffffffffffff168373ffffffffffffffffffffffffffffffffffffffff1614612f6157612f6083826131ce565b5b5b600073ffffffffffffffffffffffffffffffffffffffff168273ffffffffffffffffffffffffffffffffffffffff161415612fa557612fa08161333b565b612fe4565b8273ffffffffffffffffffffffffffffffffffffffff168273ffffffffffffffffffffffffffffffffffffffff1614612fe357612fe2828261347e565b5b5b505050565b600061300a8473ffffffffffffffffffffffffffffffffffffffff166134fd565b15613173578373ffffffffffffffffffffffffffffffffffffffff1663150b7a026130336123fc565b8786866040518563ffffffff1660e01b81526004016130559493929190614841565b602060405180830381600087803b15801561306f57600080fd5b505af19250505080156130a057506040513d601f19601f8201168201806040525081019061309d9190613b2c565b60015b613123573d80600081146130d0576040519150601f19603f3d011682016040523d82523d6000602084013e6130d5565b606091505b5060008151141561311b576040517f08c379a0000000000000000000000000000000000000000000000000000000008152600401613112906149ff565b60405180910390fd5b805181602001fd5b63150b7a0260e01b7bffffffffffffffffffffffffffffffffffffffffffffffffffffffff1916817bffffffffffffffffffffffffffffffffffffffffffffffffffffffff191614915050613178565b600190505b949350505050565b505050565b600980549050600a600083815260200190815260200160002081905550600981908060018154018082558091505060019003906000526020600020016000909190919091505550565b600060016131db84611521565b6131e59190614ea3565b90506000600860008481526020019081526020016000205490508181146132ca576000600760008673ffffffffffffffffffffffffffffffffffffffff1673ffffffffffffffffffffffffffffffffffffffff168152602001908152602001600020600084815260200190815260200160002054905080600760008773ffffffffffffffffffffffffffffffffffffffff1673ffffffffffffffffffffffffffffffffffffffff168152602001908152602001600020600084815260200190815260200160002081905550816008600083815260200190815260200160002081905550505b6008600084815260200190815260200160002060009055600760008573ffffffffffffffffffffffffffffffffffffffff1673ffffffffffffffffffffffffffffffffffffffff16815260200190815260200160002060008381526020019081526020016000206000905550505050565b6000600160098054905061334f9190614ea3565b90506000600a60008481526020019081526020016000205490506000600983815481106133a5577f4e487b7100000000000000000000000000000000000000000000000000000000600052603260045260246000fd5b9060005260206000200154905080600983815481106133ed577f4e487b7100000000000000000000000000000000000000000000000000000000600052603260045260246000fd5b906000526020600020018190555081600a600083815260200190815260200160002081905550600a6000858152602001908152602001600020600090556009805480613462577f4e487b7100000000000000000000000000000000000000000000000000000000600052603160045260246000fd5b6001900381819060005260206000200160009055905550505050565b600061348983611521565b905081600760008573ffffffffffffffffffffffffffffffffffffffff1673ffffffffffffffffffffffffffffffffffffffff168152602001908152602001600020600083815260200190815260200160002081905550806008600084815260200190815260200160002081905550505050565b600080823b905060008111915050919050565b604051806101200160405280600990602082028036833780820191505090505090565b60405180610180016040528060608152602001600060ff168152602001600060ff168152602001600060ff168152602001600060ff168152602001600063ffffffff1681526020016000815260200160008152602001613591613510565b815260200161359e6135ec565b8152602001600015158152602001600060048111156135e6577f4e487b7100000000000000000000000000000000000000000000000000000000600052602160045260246000fd5b81525090565b6040518060c00160405280600690602082028036833780820191505090505090565b82805461361a90614fdd565b90600052602060002090601f01602090048101928261363c5760008555613683565b82601f1061365557805160ff1916838001178555613683565b82800160010185558215613683579182015b82811115613682578251825591602001919060010190613667565b5b50905061369091906137c8565b5090565b826009601f0160209004810192821561371d5791602002820160005b838211156136ee57835183826101000a81548160ff021916908360ff16021790555092602001926001016020816000010492830192600103026136b0565b801561371b5782816101000a81549060ff02191690556001016020816000010492830192600103026136ee565b505b50905061372a91906137c8565b5090565b826006601f016020900481019282156137b75791602002820160005b8382111561378857835183826101000a81548160ff021916908360ff160217905550926020019260010160208160000104928301926001030261374a565b80156137b55782816101000a81549060ff0219169055600101602081600001049283019260010302613788565b505b5090506137c491906137c8565b5090565b5b808211156137e15760008160009055506001016137c9565b5090565b60006137f86137f384614ce3565b614cb2565b90508281526020810184848401111561381057600080fd5b61381b848285614f9b565b509392505050565b600061383661383184614d13565b614cb2565b90508281526020810184848401111561384e57600080fd5b613859848285614f9b565b509392505050565b60008135905061387081615199565b92915050565b600081359050613885816151b0565b92915050565b60008135905061389a816151c7565b92915050565b6000815190506138af816151c7565b92915050565b600082601f8301126138c657600080fd5b81356138d68482602086016137e5565b91505092915050565b600082601f8301126138f057600080fd5b8135613900848260208601613823565b91505092915050565b600081359050613918816151de565b92915050565b60008135905061392d816151f5565b92915050565b60006020828403121561394557600080fd5b600061395384828501613861565b91505092915050565b6000806040838503121561396f57600080fd5b600061397d85828601613861565b925050602061398e85828601613861565b9150509250929050565b6000806000606084860312156139ad57600080fd5b60006139bb86828701613861565b93505060206139cc86828701613861565b92505060406139dd86828701613909565b9150509250925092565b600080600080608085870312156139fd57600080fd5b6000613a0b87828801613861565b9450506020613a1c87828801613861565b9350506040613a2d87828801613909565b925050606085013567ffffffffffffffff811115613a4a57600080fd5b613a56878288016138b5565b91505092959194509250565b60008060408385031215613a7557600080fd5b6000613a8385828601613861565b9250506020613a9485828601613876565b9150509250929050565b60008060408385031215613ab157600080fd5b6000613abf85828601613861565b9250506020613ad085828601613909565b9150509250929050565b600060208284031215613aec57600080fd5b6000613afa84828501613876565b91505092915050565b600060208284031215613b1557600080fd5b6000613b238482850161388b565b91505092915050565b600060208284031215613b3e57600080fd5b6000613b4c848285016138a0565b91505092915050565b60008060408385031215613b6857600080fd5b600083013567ffffffffffffffff811115613b8257600080fd5b613b8e858286016138df565b9250506020613b9f8582860161391e565b9150509250929050565b600060208284031215613bbb57600080fd5b6000613bc984828501613909565b91505092915050565b60008060408385031215613be557600080fd5b6000613bf385828601613909565b9250506020613c0485828601613909565b9150509250929050565b6000613c1a83836147d7565b60208301905092915050565b613c2f81614ed7565b82525050565b613c3e81614d6c565b613c488184614db2565b9250613c5382614d43565b8060005b83811015613c84578151613c6b8782613c0e565b9650613c7683614d98565b925050600181019050613c57565b505050505050565b613c9581614d6c565b613c9f8184614dbd565b9250613caa82614d43565b8060005b83811015613cdb578151613cc28782613c0e565b9650613ccd83614d98565b925050600181019050613cae565b505050505050565b613cec81614d77565b613cf68184614dc8565b9250613d0182614d4d565b8060005b83811015613d32578151613d198782613c0e565b9650613d2483614da5565b925050600181019050613d05565b505050505050565b613d4381614d77565b613d4d8184614dd3565b9250613d5882614d4d565b8060005b83811015613d89578151613d708782613c0e565b9650613d7b83614da5565b925050600181019050613d5c565b505050505050565b613d9a81614ee9565b82525050565b613da981614ee9565b82525050565b6000613dba82614d82565b613dc48185614dde565b9350613dd4818560208601614faa565b613ddd81615174565b840191505092915050565b613df181614f89565b82525050565b613e0081614f89565b82525050565b6000613e1182614d8d565b613e1b8185614def565b9350613e2b818560208601614faa565b613e3481615174565b840191505092915050565b6000613e4a82614d8d565b613e548185614e00565b9350613e64818560208601614faa565b613e6d81615174565b840191505092915050565b6000613e8382614d8d565b613e8d8185614e11565b9350613e9d818560208601614faa565b80840191505092915050565b60008154613eb681614fdd565b613ec08186614e11565b94506001821660008114613edb5760018114613eec57613f1f565b60ff19831686528186019350613f1f565b613ef585614d57565b60005b83811015613f1757815481890152600182019150602081019050613ef8565b838801955050505b50505092915050565b6000613f35602783614e00565b91507f4e6f742074686520726967687466756c6c206f776e6572206f6620746869732060008301527f66696768746572000000000000000000000000000000000000000000000000006020830152604082019050919050565b6000613f9b602b83614e00565b91507f455243373231456e756d657261626c653a206f776e657220696e646578206f7560008301527f74206f6620626f756e64730000000000000000000000000000000000000000006020830152604082019050919050565b6000614001603283614e00565b91507f4552433732313a207472616e7366657220746f206e6f6e20455243373231526560008301527f63656976657220696d706c656d656e74657200000000000000000000000000006020830152604082019050919050565b6000614067602683614e00565b91507f4f776e61626c653a206e6577206f776e657220697320746865207a65726f206160008301527f64647265737300000000000000000000000000000000000000000000000000006020830152604082019050919050565b60006140cd601c83614e00565b91507f4552433732313a20746f6b656e20616c7265616479206d696e746564000000006000830152602082019050919050565b600061410d602483614e00565b91507f4552433732313a207472616e7366657220746f20746865207a65726f2061646460008301527f72657373000000000000000000000000000000000000000000000000000000006020830152604082019050919050565b6000614173601983614e00565b91507f4552433732313a20617070726f766520746f2063616c6c6572000000000000006000830152602082019050919050565b60006141b3602c83614e00565b91507f4552433732313a206f70657261746f7220717565727920666f72206e6f6e657860008301527f697374656e7420746f6b656e00000000000000000000000000000000000000006020830152604082019050919050565b6000614219603883614e00565b91507f4552433732313a20617070726f76652063616c6c6572206973206e6f74206f7760008301527f6e6572206e6f7220617070726f76656420666f7220616c6c00000000000000006020830152604082019050919050565b600061427f602a83614e00565b91507f4552433732313a2062616c616e636520717565727920666f7220746865207a6560008301527f726f2061646472657373000000000000000000000000000000000000000000006020830152604082019050919050565b60006142e5602983614e00565b91507f4552433732313a206f776e657220717565727920666f72206e6f6e657869737460008301527f656e7420746f6b656e00000000000000000000000000000000000000000000006020830152604082019050919050565b600061434b602083614e00565b91507f4552433732313a206d696e7420746f20746865207a65726f20616464726573736000830152602082019050919050565b600061438b602c83614e00565b91507f4552433732313a20617070726f76656420717565727920666f72206e6f6e657860008301527f697374656e7420746f6b656e00000000000000000000000000000000000000006020830152604082019050919050565b60006143f1602083614e00565b91507f4f776e61626c653a2063616c6c6572206973206e6f7420746865206f776e65726000830152602082019050919050565b6000614431602983614e00565b91507f4552433732313a207472616e73666572206f6620746f6b656e2074686174206960008301527f73206e6f74206f776e00000000000000000000000000000000000000000000006020830152604082019050919050565b6000614497602f83614e00565b91507f4552433732314d657461646174613a2055524920717565727920666f72206e6f60008301527f6e6578697374656e7420746f6b656e00000000000000000000000000000000006020830152604082019050919050565b60006144fd602183614e00565b91507f4552433732313a20617070726f76616c20746f2063757272656e74206f776e6560008301527f72000000000000000000000000000000000000000000000000000000000000006020830152604082019050919050565b6000614563603183614e00565b91507f4552433732313a207472616e736665722063616c6c6572206973206e6f74206f60008301527f776e6572206e6f7220617070726f7665640000000000000000000000000000006020830152604082019050919050565b60006145c9602c83614e00565b91507f455243373231456e756d657261626c653a20676c6f62616c20696e646578206f60008301527f7574206f6620626f756e647300000000000000000000000000000000000000006020830152604082019050919050565b600061462f602283614e00565b91507f6f6e65206f776e65722063616e2068617665206d61782031302066696768746560008301527f72730000000000000000000000000000000000000000000000000000000000006020830152604082019050919050565b60006103208301600083015184820360008601526146a68282613e06565b91505060208301516146bb60208601826147d7565b5060408301516146ce60408601826147d7565b5060608301516146e160608601826147d7565b5060808301516146f460808601826147d7565b5060a083015161470760a08601826147b9565b5060c083015161471a60c086018261479b565b5060e083015161472d60e086018261479b565b50610100830151614742610100860182613ce3565b50610120830151614757610220860182613c35565b5061014083015161476c6102e0860182613d91565b50610160830151614781610300860182613de8565b508091505092915050565b61479581614f34565b82525050565b6147a481614f62565b82525050565b6147b381614f62565b82525050565b6147c281614f6c565b82525050565b6147d181614f6c565b82525050565b6147e081614f7c565b82525050565b6147ef81614f7c565b82525050565b60006148018286613e78565b915061480d8285613e78565b91506148198284613ea9565b9150819050949350505050565b600060208201905061483b6000830184613c26565b92915050565b60006080820190506148566000830187613c26565b6148636020830186613c26565b61487060408301856147aa565b81810360608301526148828184613daf565b905095945050505050565b600060c0820190506148a26000830184613c8c565b92915050565b6000610120820190506148be6000830184613d3a565b92915050565b60006020820190506148d96000830184613da0565b92915050565b60006020820190506148f46000830184613df7565b92915050565b600060208201905081810360008301526149148184613e3f565b905092915050565b6000610140820190508181036000830152614937818d613e3f565b9050614946602083018c6147e6565b614953604083018b6147e6565b614960606083018a6147e6565b61496d60808301896147e6565b61497a60a08301886147c8565b61498760c08301876147aa565b61499460e08301866147aa565b6149a2610100830185613da0565b6149b0610120830184613df7565b9b9a5050505050505050505050565b600060208201905081810360008301526149d881613f28565b9050919050565b600060208201905081810360008301526149f881613f8e565b9050919050565b60006020820190508181036000830152614a1881613ff4565b9050919050565b60006020820190508181036000830152614a388161405a565b9050919050565b60006020820190508181036000830152614a58816140c0565b9050919050565b60006020820190508181036000830152614a7881614100565b9050919050565b60006020820190508181036000830152614a9881614166565b9050919050565b60006020820190508181036000830152614ab8816141a6565b9050919050565b60006020820190508181036000830152614ad88161420c565b9050919050565b60006020820190508181036000830152614af881614272565b9050919050565b60006020820190508181036000830152614b18816142d8565b9050919050565b60006020820190508181036000830152614b388161433e565b9050919050565b60006020820190508181036000830152614b588161437e565b9050919050565b60006020820190508181036000830152614b78816143e4565b9050919050565b60006020820190508181036000830152614b9881614424565b9050919050565b60006020820190508181036000830152614bb88161448a565b9050919050565b60006020820190508181036000830152614bd8816144f0565b9050919050565b60006020820190508181036000830152614bf881614556565b9050919050565b60006020820190508181036000830152614c18816145bc565b9050919050565b60006020820190508181036000830152614c3881614622565b9050919050565b60006020820190508181036000830152614c598184614688565b905092915050565b6000602082019050614c76600083018461478c565b92915050565b6000602082019050614c9160008301846147aa565b92915050565b6000602082019050614cac60008301846147e6565b92915050565b6000604051905081810181811067ffffffffffffffff82111715614cd957614cd8615145565b5b8060405250919050565b600067ffffffffffffffff821115614cfe57614cfd615145565b5b601f19601f8301169050602081019050919050565b600067ffffffffffffffff821115614d2e57614d2d615145565b5b601f19601f8301169050602081019050919050565b6000819050919050565b6000819050919050565b60008190508160005260206000209050919050565b600060069050919050565b600060099050919050565b600081519050919050565b600081519050919050565b6000602082019050919050565b6000602082019050919050565b600081905092915050565b600081905092915050565b600081905092915050565b600081905092915050565b600082825260208201905092915050565b600082825260208201905092915050565b600082825260208201905092915050565b600081905092915050565b6000614e2782614f62565b9150614e3283614f62565b9250827fffffffffffffffffffffffffffffffffffffffffffffffffffffffffffffffff03821115614e6757614e66615089565b5b828201905092915050565b6000614e7d82614f62565b9150614e8883614f62565b925082614e9857614e976150b8565b5b828204905092915050565b6000614eae82614f62565b9150614eb983614f62565b925082821015614ecc57614ecb615089565b5b828203905092915050565b6000614ee282614f42565b9050919050565b60008115159050919050565b60007fffffffff0000000000000000000000000000000000000000000000000000000082169050919050565b6000819050614f2f82615185565b919050565b600061ffff82169050919050565b600073ffffffffffffffffffffffffffffffffffffffff82169050919050565b6000819050919050565b600063ffffffff82169050919050565b600060ff82169050919050565b6000614f9482614f21565b9050919050565b82818337600083830152505050565b60005b83811015614fc8578082015181840152602081019050614fad565b83811115614fd7576000848401525b50505050565b60006002820490506001821680614ff557607f821691505b6020821081141561500957615008615116565b5b50919050565b600061501a82614f62565b91507fffffffffffffffffffffffffffffffffffffffffffffffffffffffffffffffff82141561504d5761504c615089565b5b600182019050919050565b600061506382614f62565b915061506e83614f62565b92508261507e5761507d6150b8565b5b828206905092915050565b7f4e487b7100000000000000000000000000000000000000000000000000000000600052601160045260246000fd5b7f4e487b7100000000000000000000000000000000000000000000000000000000600052601260045260246000fd5b7f4e487b7100000000000000000000000000000000000000000000000000000000600052602160045260246000fd5b7f4e487b7100000000000000000000000000000000000000000000000000000000600052602260045260246000fd5b7f4e487b7100000000000000000000000000000000000000000000000000000000600052604160045260246000fd5b6000601f19601f8301169050919050565b60058110615196576151956150e7565b5b50565b6151a281614ed7565b81146151ad57600080fd5b50565b6151b981614ee9565b81146151c457600080fd5b50565b6151d081614ef5565b81146151db57600080fd5b50565b6151e781614f62565b81146151f257600080fd5b50565b6151fe81614f7c565b811461520957600080fd5b5056fea26469706673582212209b1ce9ce17bb6fcc804fcb81cf94fc0f003856754b52a2194e06343cb2bb2d0a64736f6c63430008000033697066733a2f2f516d4e716e72424148764b595963694779326d4b5a706b416e414a4a6f58426878327679554c6357483446696d392f",
  "linkReferences": {},
  "deployedLinkReferences": {}
}