{
  "_format": "hh-sol-artifact-1",
  "contractName": "Tournament",
  "sourceName": "contracts/fight/tournament.sol",
  "abi": [
    {
      "anonymous": false,
      "inputs": [
        {
          "indexed": true,
          "internalType": "address",
          "name": "owner",
          "type": "address"
        },
        {
          "indexed": true,
          "internalType": "address",
          "name": "approved",
          "type": "address"
        },
        {
          "indexed": true,
          "internalType": "uint256",
          "name": "tokenId",
          "type": "uint256"
        }
      ],
      "name": "Approval",
      "type": "event"
    },
    {
      "anonymous": false,
      "inputs": [
        {
          "indexed": true,
          "internalType": "address",
          "name": "owner",
          "type": "address"
        },
        {
          "indexed": true,
          "internalType": "address",
          "name": "operator",
          "type": "address"
        },
        {
          "indexed": false,
          "internalType": "bool",
          "name": "approved",
          "type": "bool"
        }
      ],
      "name": "ApprovalForAll",
      "type": "event"
    },
    {
      "anonymous": false,
      "inputs": [
        {
          "indexed": false,
          "internalType": "uint256",
          "name": "fighterId",
          "type": "uint256"
        }
      ],
      "name": "GotInjured",
      "type": "event"
    },
    {
      "anonymous": false,
      "inputs": [
        {
          "indexed": false,
          "internalType": "uint256",
          "name": "fighterId",
          "type": "uint256"
        },
        {
          "indexed": false,
          "internalType": "uint256",
          "name": "newLevel",
          "type": "uint256"
        }
      ],
      "name": "IncreasedLevel",
      "type": "event"
    },
    {
      "anonymous": false,
      "inputs": [
        {
          "indexed": false,
          "internalType": "uint256",
          "name": "fighterId",
          "type": "uint256"
        },
        {
          "indexed": false,
          "internalType": "string",
          "name": "name",
          "type": "string"
        },
        {
          "indexed": false,
          "internalType": "uint256",
          "name": "style",
          "type": "uint256"
        }
      ],
      "name": "NewFighter",
      "type": "event"
    },
    {
      "anonymous": false,
      "inputs": [
        {
          "indexed": true,
          "internalType": "address",
          "name": "previousOwner",
          "type": "address"
        },
        {
          "indexed": true,
          "internalType": "address",
          "name": "newOwner",
          "type": "address"
        }
      ],
      "name": "OwnershipTransferred",
      "type": "event"
    },
    {
      "anonymous": false,
      "inputs": [
        {
          "indexed": true,
          "internalType": "address",
          "name": "from",
          "type": "address"
        },
        {
          "indexed": true,
          "internalType": "address",
          "name": "to",
          "type": "address"
        },
        {
          "indexed": true,
          "internalType": "uint256",
          "name": "tokenId",
          "type": "uint256"
        }
      ],
      "name": "Transfer",
      "type": "event"
    },
    {
      "inputs": [
        {
          "internalType": "address",
          "name": "to",
          "type": "address"
        },
        {
          "internalType": "uint256",
          "name": "tokenId",
          "type": "uint256"
        }
      ],
      "name": "approve",
      "outputs": [],
      "stateMutability": "nonpayable",
      "type": "function"
    },
    {
      "inputs": [
        {
          "internalType": "address",
          "name": "owner",
          "type": "address"
        }
      ],
      "name": "balanceOf",
      "outputs": [
        {
          "internalType": "uint256",
          "name": "",
          "type": "uint256"
        }
      ],
      "stateMutability": "view",
      "type": "function"
    },
    {
      "inputs": [],
      "name": "baseExtension",
      "outputs": [
        {
          "internalType": "string",
          "name": "",
          "type": "string"
        }
      ],
      "stateMutability": "view",
      "type": "function"
    },
    {
      "inputs": [],
      "name": "baseURI",
      "outputs": [
        {
          "internalType": "string",
          "name": "",
          "type": "string"
        }
      ],
      "stateMutability": "view",
      "type": "function"
    },
    {
      "inputs": [
        {
          "internalType": "uint256",
          "name": "_fighterId",
          "type": "uint256"
        }
      ],
      "name": "checkIfRetired",
      "outputs": [
        {
          "internalType": "bool",
          "name": "",
          "type": "bool"
        }
      ],
      "stateMutability": "view",
      "type": "function"
    },
    {
      "inputs": [],
      "name": "cooldownTime",
      "outputs": [
        {
          "internalType": "uint16",
          "name": "",
          "type": "uint16"
        }
      ],
      "stateMutability": "view",
      "type": "function"
    },
    {
      "inputs": [],
      "name": "cost",
      "outputs": [
        {
          "internalType": "uint256",
          "name": "",
          "type": "uint256"
        }
      ],
      "stateMutability": "view",
      "type": "function"
    },
    {
      "inputs": [
        {
          "internalType": "string",
          "name": "_name",
          "type": "string"
        },
        {
          "internalType": "uint8",
          "name": "_style",
          "type": "uint8"
        }
      ],
      "name": "createFighter",
      "outputs": [
        {
          "internalType": "bool",
          "name": "",
          "type": "bool"
        }
      ],
      "stateMutability": "payable",
      "type": "function"
    },
    {
      "inputs": [
        {
          "internalType": "uint256",
          "name": "",
          "type": "uint256"
        }
      ],
      "name": "fighterIdToOwner",
      "outputs": [
        {
          "internalType": "address",
          "name": "",
          "type": "address"
        }
      ],
      "stateMutability": "view",
      "type": "function"
    },
    {
      "inputs": [
        {
          "internalType": "uint256",
          "name": "",
          "type": "uint256"
        }
      ],
      "name": "fighters",
      "outputs": [
        {
          "internalType": "string",
          "name": "name",
          "type": "string"
        },
        {
          "internalType": "uint8",
          "name": "weight",
          "type": "uint8"
        },
        {
          "internalType": "uint8",
          "name": "age",
          "type": "uint8"
        },
        {
          "internalType": "uint8",
          "name": "level",
          "type": "uint8"
        },
        {
          "internalType": "uint8",
          "name": "fightingStyle",
          "type": "uint8"
        },
        {
          "internalType": "uint32",
          "name": "xp",
          "type": "uint32"
        },
        {
          "internalType": "uint256",
          "name": "readyTime",
          "type": "uint256"
        },
        {
          "internalType": "uint256",
          "name": "id",
          "type": "uint256"
        },
        {
          "internalType": "bool",
          "name": "injured",
          "type": "bool"
        },
        {
          "internalType": "enum FighterFactory.pro_status",
          "name": "status",
          "type": "uint8"
        }
      ],
      "stateMutability": "view",
      "type": "function"
    },
    {
      "inputs": [
        {
          "internalType": "uint256",
          "name": "tokenId",
          "type": "uint256"
        }
      ],
      "name": "getApproved",
      "outputs": [
        {
          "internalType": "address",
          "name": "",
          "type": "address"
        }
      ],
      "stateMutability": "view",
      "type": "function"
    },
    {
      "inputs": [
        {
          "internalType": "uint256",
          "name": "_id",
          "type": "uint256"
        }
      ],
      "name": "getFighter",
      "outputs": [
        {
          "components": [
            {
              "internalType": "string",
              "name": "name",
              "type": "string"
            },
            {
              "internalType": "uint8",
              "name": "weight",
              "type": "uint8"
            },
            {
              "internalType": "uint8",
              "name": "age",
              "type": "uint8"
            },
            {
              "internalType": "uint8",
              "name": "level",
              "type": "uint8"
            },
            {
              "internalType": "uint8",
              "name": "fightingStyle",
              "type": "uint8"
            },
            {
              "internalType": "uint32",
              "name": "xp",
              "type": "uint32"
            },
            {
              "internalType": "uint256",
              "name": "readyTime",
              "type": "uint256"
            },
            {
              "internalType": "uint256",
              "name": "id",
              "type": "uint256"
            },
            {
              "internalType": "uint8[9]",
              "name": "stats",
              "type": "uint8[9]"
            },
            {
              "internalType": "uint8[6]",
              "name": "fightRecord",
              "type": "uint8[6]"
            },
            {
              "internalType": "bool",
              "name": "injured",
              "type": "bool"
            },
            {
              "internalType": "enum FighterFactory.pro_status",
              "name": "status",
              "type": "uint8"
            }
          ],
          "internalType": "struct FighterFactory.Fighter",
          "name": "",
          "type": "tuple"
        }
      ],
      "stateMutability": "view",
      "type": "function"
    },
    {
      "inputs": [
        {
          "internalType": "uint256",
          "name": "_fighterId",
          "type": "uint256"
        }
      ],
      "name": "getFighterStats",
      "outputs": [
        {
          "internalType": "uint8[9]",
          "name": "",
          "type": "uint8[9]"
        }
      ],
      "stateMutability": "view",
      "type": "function"
    },
    {
      "inputs": [
        {
          "internalType": "uint256",
          "name": "_fighterId",
          "type": "uint256"
        }
      ],
      "name": "getFighterStatus",
      "outputs": [
        {
          "internalType": "enum FighterFactory.pro_status",
          "name": "",
          "type": "uint8"
        }
      ],
      "stateMutability": "view",
      "type": "function"
    },
    {
      "inputs": [
        {
          "internalType": "uint256",
          "name": "_fighterId",
          "type": "uint256"
        }
      ],
      "name": "getFighterURI",
      "outputs": [
        {
          "internalType": "string",
          "name": "",
          "type": "string"
        }
      ],
      "stateMutability": "view",
      "type": "function"
    },
    {
      "inputs": [
        {
          "internalType": "uint256",
          "name": "_id",
          "type": "uint256"
        }
      ],
      "name": "getFightersRecord",
      "outputs": [
        {
          "internalType": "uint8[6]",
          "name": "",
          "type": "uint8[6]"
        }
      ],
      "stateMutability": "view",
      "type": "function"
    },
    {
      "inputs": [
        {
          "internalType": "address",
          "name": "owner",
          "type": "address"
        },
        {
          "internalType": "address",
          "name": "operator",
          "type": "address"
        }
      ],
      "name": "isApprovedForAll",
      "outputs": [
        {
          "internalType": "bool",
          "name": "",
          "type": "bool"
        }
      ],
      "stateMutability": "view",
      "type": "function"
    },
    {
      "inputs": [],
      "name": "name",
      "outputs": [
        {
          "internalType": "string",
          "name": "",
          "type": "string"
        }
      ],
      "stateMutability": "view",
      "type": "function"
    },
    {
      "inputs": [],
      "name": "owner",
      "outputs": [
        {
          "internalType": "address",
          "name": "",
          "type": "address"
        }
      ],
      "stateMutability": "view",
      "type": "function"
    },
    {
      "inputs": [
        {
          "internalType": "uint256",
          "name": "tokenId",
          "type": "uint256"
        }
      ],
      "name": "ownerOf",
      "outputs": [
        {
          "internalType": "address",
          "name": "",
          "type": "address"
        }
      ],
      "stateMutability": "view",
      "type": "function"
    },
    {
      "inputs": [
        {
          "internalType": "bool",
          "name": "_state",
          "type": "bool"
        }
      ],
      "name": "pause",
      "outputs": [],
      "stateMutability": "nonpayable",
      "type": "function"
    },
    {
      "inputs": [],
      "name": "paused",
      "outputs": [
        {
          "internalType": "bool",
          "name": "",
          "type": "bool"
        }
      ],
      "stateMutability": "view",
      "type": "function"
    },
    {
      "inputs": [],
      "name": "renounceOwnership",
      "outputs": [],
      "stateMutability": "nonpayable",
      "type": "function"
    },
    {
      "inputs": [
        {
          "internalType": "uint256",
          "name": "_fighterId",
          "type": "uint256"
        }
      ],
      "name": "retire",
      "outputs": [],
      "stateMutability": "nonpayable",
      "type": "function"
    },
    {
      "inputs": [
        {
          "internalType": "address",
          "name": "from",
          "type": "address"
        },
        {
          "internalType": "address",
          "name": "to",
          "type": "address"
        },
        {
          "internalType": "uint256",
          "name": "tokenId",
          "type": "uint256"
        }
      ],
      "name": "safeTransferFrom",
      "outputs": [],
      "stateMutability": "nonpayable",
      "type": "function"
    },
    {
      "inputs": [
        {
          "internalType": "address",
          "name": "from",
          "type": "address"
        },
        {
          "internalType": "address",
          "name": "to",
          "type": "address"
        },
        {
          "internalType": "uint256",
          "name": "tokenId",
          "type": "uint256"
        },
        {
          "internalType": "bytes",
          "name": "_data",
          "type": "bytes"
        }
      ],
      "name": "safeTransferFrom",
      "outputs": [],
      "stateMutability": "nonpayable",
      "type": "function"
    },
    {
      "inputs": [
        {
          "internalType": "uint256",
          "name": "",
          "type": "uint256"
        },
        {
          "internalType": "uint256",
          "name": "",
          "type": "uint256"
        }
      ],
      "name": "selectedStyle",
      "outputs": [
        {
          "internalType": "uint8",
          "name": "",
          "type": "uint8"
        }
      ],
      "stateMutability": "view",
      "type": "function"
    },
    {
      "inputs": [
        {
          "internalType": "address",
          "name": "operator",
          "type": "address"
        },
        {
          "internalType": "bool",
          "name": "approved",
          "type": "bool"
        }
      ],
      "name": "setApprovalForAll",
      "outputs": [],
      "stateMutability": "nonpayable",
      "type": "function"
    },
    {
      "inputs": [
        {
          "internalType": "bytes4",
          "name": "interfaceId",
          "type": "bytes4"
        }
      ],
      "name": "supportsInterface",
      "outputs": [
        {
          "internalType": "bool",
          "name": "",
          "type": "bool"
        }
      ],
      "stateMutability": "view",
      "type": "function"
    },
    {
      "inputs": [],
      "name": "symbol",
      "outputs": [
        {
          "internalType": "string",
          "name": "",
          "type": "string"
        }
      ],
      "stateMutability": "view",
      "type": "function"
    },
    {
      "inputs": [
        {
          "internalType": "uint256",
          "name": "index",
          "type": "uint256"
        }
      ],
      "name": "tokenByIndex",
      "outputs": [
        {
          "internalType": "uint256",
          "name": "",
          "type": "uint256"
        }
      ],
      "stateMutability": "view",
      "type": "function"
    },
    {
      "inputs": [
        {
          "internalType": "address",
          "name": "owner",
          "type": "address"
        },
        {
          "internalType": "uint256",
          "name": "index",
          "type": "uint256"
        }
      ],
      "name": "tokenOfOwnerByIndex",
      "outputs": [
        {
          "internalType": "uint256",
          "name": "",
          "type": "uint256"
        }
      ],
      "stateMutability": "view",
      "type": "function"
    },
    {
      "inputs": [
        {
          "internalType": "uint256",
          "name": "tokenId",
          "type": "uint256"
        }
      ],
      "name": "tokenURI",
      "outputs": [
        {
          "internalType": "string",
          "name": "",
          "type": "string"
        }
      ],
      "stateMutability": "view",
      "type": "function"
    },
    {
      "inputs": [],
      "name": "totalSupply",
      "outputs": [
        {
          "internalType": "uint256",
          "name": "",
          "type": "uint256"
        }
      ],
      "stateMutability": "view",
      "type": "function"
    },
    {
      "inputs": [
        {
          "internalType": "uint256",
          "name": "_fighterId",
          "type": "uint256"
        }
      ],
      "name": "train",
      "outputs": [],
      "stateMutability": "nonpayable",
      "type": "function"
    },
    {
      "inputs": [
        {
          "internalType": "address",
          "name": "_to",
          "type": "address"
        },
        {
          "internalType": "uint256",
          "name": "_fighterId",
          "type": "uint256"
        }
      ],
      "name": "transferFighter",
      "outputs": [],
      "stateMutability": "nonpayable",
      "type": "function"
    },
    {
      "inputs": [
        {
          "internalType": "address",
          "name": "from",
          "type": "address"
        },
        {
          "internalType": "address",
          "name": "to",
          "type": "address"
        },
        {
          "internalType": "uint256",
          "name": "tokenId",
          "type": "uint256"
        }
      ],
      "name": "transferFrom",
      "outputs": [],
      "stateMutability": "nonpayable",
      "type": "function"
    },
    {
      "inputs": [
        {
          "internalType": "address",
          "name": "newOwner",
          "type": "address"
        }
      ],
      "name": "transferOwnership",
      "outputs": [],
      "stateMutability": "nonpayable",
      "type": "function"
    },
    {
      "inputs": [],
      "name": "withdraw",
      "outputs": [],
      "stateMutability": "payable",
      "type": "function"
    }
  ],
  "bytecode": "0x60806040526040518060400160405280600581526020017f2e6a736f6e000000000000000000000000000000000000000000000000000000815250600c9080519060200190620000519291906200057b565b50614650600d60006101000a81548161ffff021916908361ffff16021790555067016345785d8a0000600e556000600f60006101000a81548160ff0219169083151502179055506000601455348015620000aa57600080fd5b506040518060400160405280601181526020017f554643727970746f2046696768746572730000000000000000000000000000008152506040518060400160405280600681526020017f4647485445520000000000000000000000000000000000000000000000000000815250620001376200012b620004af60201b60201c565b620004b760201b60201c565b81600190805190602001906200014f9291906200057b565b508060029080519060200190620001689291906200057b565b505050604051806060016040528060368152602001620061ad60369139600b90805190602001906200019c9291906200057b565b506013604051806101200160405280600d60ff168152602001600b60ff168152602001600a60ff168152602001600960ff168152602001600360ff168152602001600a60ff168152602001600f60ff168152602001600260ff168152602001600260ff1681525090806001815401808255809150506001900390600052602060002001600090919091909150906009620002389291906200060c565b506013604051806101200160405280600b60ff168152602001600d60ff168152602001600a60ff168152602001600960ff168152602001600260ff168152602001600f60ff168152602001600a60ff168152602001600360ff168152602001600260ff1681525090806001815401808255809150506001900390600052602060002001600090919091909150906009620002d49291906200060c565b506013604051806101200160405280600960ff168152602001600c60ff168152602001600a60ff168152602001600c60ff168152602001600b60ff168152602001600160ff168152602001600260ff168152602001600f60ff168152602001600360ff1681525090806001815401808255809150506001900390600052602060002001600090919091909150906009620003709291906200060c565b506013604051806101200160405280600860ff168152602001600a60ff168152602001600a60ff168152602001600b60ff168152602001600d60ff168152602001600160ff168152602001600160ff168152602001600b60ff168152602001600a60ff16815250908060018154018082558091505060019003906000526020600020016000909190919091509060096200040c9291906200060c565b506013604051806101200160405280600860ff168152602001600960ff168152602001600a60ff168152602001600960ff168152602001600860ff168152602001600860ff168152602001600860ff168152602001600860ff168152602001600860ff1681525090806001815401808255809150506001900390600052602060002001600090919091909150906009620004a89291906200060c565b5062000731565b600033905090565b60008060009054906101000a900473ffffffffffffffffffffffffffffffffffffffff169050816000806101000a81548173ffffffffffffffffffffffffffffffffffffffff021916908373ffffffffffffffffffffffffffffffffffffffff1602179055508173ffffffffffffffffffffffffffffffffffffffff168173ffffffffffffffffffffffffffffffffffffffff167f8be0079c531659141344cd1fd0a4f28419497f9722a3daafe3b4186f6b6457e060405160405180910390a35050565b8280546200058990620006cc565b90600052602060002090601f016020900481019282620005ad5760008555620005f9565b82601f10620005c857805160ff1916838001178555620005f9565b82800160010185558215620005f9579182015b82811115620005f8578251825591602001919060010190620005db565b5b509050620006089190620006ad565b5090565b826009601f016020900481019282156200069a5791602002820160005b838211156200066957835183826101000a81548160ff021916908360ff160217905550926020019260010160208160000104928301926001030262000629565b8015620006985782816101000a81549060ff021916905560010160208160000104928301926001030262000669565b505b509050620006a99190620006ad565b5090565b5b80821115620006c8576000816000905550600101620006ae565b5090565b60006002820490506001821680620006e557607f821691505b60208210811415620006fc57620006fb62000702565b5b50919050565b7f4e487b7100000000000000000000000000000000000000000000000000000000600052602260045260246000fd5b615a6c80620007416000396000f3fe6080604052600436106102305760003560e01c8063590ad6971161012e578063a22cb465116100ab578063d57dde891161006f578063d57dde89146108a9578063e5cbb693146108e6578063e985e9c514610916578063f00a9f7b14610953578063f2fde38b1461099057610230565b8063a22cb465146107c4578063b319c6b7146107ed578063b88d4fde14610818578063c668286214610841578063c87b56dd1461086c57610230565b8063715018a6116100f2578063715018a6146106dd57806379e3b28a146106f4578063889fa1dc146107315780638da5cb5b1461076e57806395d89b411461079957610230565b8063590ad697146105e45780635c975abb1461060d5780636352211e146106385780636c0360eb1461067557806370a08231146106a057610230565b80632f745c59116101bc57806342f22a241161018057806342f22a24146104b357806343d514f1146104f05780634b1939331461052d5780634f6ccce71461056a57806355af86c4146105a757610230565b80632f745c59146103f1578063368004ed1461042e5780633790cf57146104575780633ccfd60b1461048057806342842e0e1461048a57610230565b8063095ea7b311610203578063095ea7b31461030357806313faede61461032c57806318160ddd1461035757806323b872dd146103825780632e6b221d146103ab57610230565b806301ffc9a71461023557806302329a291461027257806306fdde031461029b578063081812fc146102c6575b600080fd5b34801561024157600080fd5b5061025c60048036038101906102579190613f92565b6109b9565b6040516102699190614e3e565b60405180910390f35b34801561027e57600080fd5b5061029960048036038101906102949190613f69565b610a33565b005b3480156102a757600080fd5b506102b0610acc565b6040516102bd9190614e74565b60405180910390f35b3480156102d257600080fd5b506102ed60048036038101906102e89190614038565b610b5e565b6040516102fa9190614da0565b60405180910390f35b34801561030f57600080fd5b5061032a60048036038101906103259190613f2d565b610be3565b005b34801561033857600080fd5b50610341610cfb565b60405161034e9190615236565b60405180910390f35b34801561036357600080fd5b5061036c610d01565b6040516103799190615236565b60405180910390f35b34801561038e57600080fd5b506103a960048036038101906103a49190613e27565b610d0e565b005b3480156103b757600080fd5b506103d260048036038101906103cd9190614038565b610d6e565b6040516103e89a99989796959493929190614e96565b60405180910390f35b3480156103fd57600080fd5b5061041860048036038101906104139190613f2d565b610ea8565b6040516104259190615236565b60405180910390f35b34801561043a57600080fd5b5061045560048036038101906104509190614038565b610f4d565b005b34801561046357600080fd5b5061047e60048036038101906104799190614038565b611184565b005b61048861129b565b005b34801561049657600080fd5b506104b160048036038101906104ac9190613e27565b611357565b005b3480156104bf57600080fd5b506104da60048036038101906104d59190614038565b611377565b6040516104e79190614e74565b60405180910390f35b3480156104fc57600080fd5b5061051760048036038101906105129190614061565b61141c565b6040516105249190615251565b60405180910390f35b34801561053957600080fd5b50610554600480360381019061054f9190614038565b611461565b6040516105619190614da0565b60405180910390f35b34801561057657600080fd5b50610591600480360381019061058c9190614038565b611494565b60405161059e9190615236565b60405180910390f35b3480156105b357600080fd5b506105ce60048036038101906105c99190614038565b61152b565b6040516105db9190614e22565b60405180910390f35b3480156105f057600080fd5b5061060b60048036038101906106069190613f2d565b6115b2565b005b34801561061957600080fd5b50610622611639565b60405161062f9190614e3e565b60405180910390f35b34801561064457600080fd5b5061065f600480360381019061065a9190614038565b61164c565b60405161066c9190614da0565b60405180910390f35b34801561068157600080fd5b5061068a6116fe565b6040516106979190614e74565b60405180910390f35b3480156106ac57600080fd5b506106c760048036038101906106c29190613dc2565b61178c565b6040516106d49190615236565b60405180910390f35b3480156106e957600080fd5b506106f2611844565b005b34801561070057600080fd5b5061071b60048036038101906107169190614038565b6118cc565b6040516107289190614e3e565b60405180910390f35b34801561073d57600080fd5b5061075860048036038101906107539190614038565b6119b4565b60405161076591906151f9565b60405180910390f35b34801561077a57600080fd5b50610783611c9a565b6040516107909190614da0565b60405180910390f35b3480156107a557600080fd5b506107ae611cc3565b6040516107bb9190614e74565b60405180910390f35b3480156107d057600080fd5b506107eb60048036038101906107e69190613ef1565b611d55565b005b3480156107f957600080fd5b50610802611d6b565b60405161080f919061521b565b60405180910390f35b34801561082457600080fd5b5061083f600480360381019061083a9190613e76565b611d7f565b005b34801561084d57600080fd5b50610856611de1565b6040516108639190614e74565b60405180910390f35b34801561087857600080fd5b50610893600480360381019061088e9190614038565b611e6f565b6040516108a09190614e74565b60405180910390f35b3480156108b557600080fd5b506108d060048036038101906108cb9190614038565b611f9c565b6040516108dd9190614e07565b60405180910390f35b61090060048036038101906108fb9190613fe4565b612023565b60405161090d9190614e3e565b60405180910390f35b34801561092257600080fd5b5061093d60048036038101906109389190613deb565b6123cc565b60405161094a9190614e3e565b60405180910390f35b34801561095f57600080fd5b5061097a60048036038101906109759190614038565b612460565b6040516109879190614e59565b60405180910390f35b34801561099c57600080fd5b506109b760048036038101906109b29190613dc2565b61248d565b005b60007f780e9d63000000000000000000000000000000000000000000000000000000007bffffffffffffffffffffffffffffffffffffffffffffffffffffffff1916827bffffffffffffffffffffffffffffffffffffffffffffffffffffffff19161480610a2c5750610a2b82612585565b5b9050919050565b610a3b612667565b73ffffffffffffffffffffffffffffffffffffffff16610a59611c9a565b73ffffffffffffffffffffffffffffffffffffffff1614610aaf576040517f08c379a0000000000000000000000000000000000000000000000000000000008152600401610aa690615119565b60405180910390fd5b80600f60006101000a81548160ff02191690831515021790555050565b606060018054610adb90615795565b80601f0160208091040260200160405190810160405280929190818152602001828054610b0790615795565b8015610b545780601f10610b2957610100808354040283529160200191610b54565b820191906000526020600020905b815481529060010190602001808311610b3757829003601f168201915b5050505050905090565b6000610b698261266f565b610ba8576040517f08c379a0000000000000000000000000000000000000000000000000000000008152600401610b9f906150f9565b60405180910390fd5b6005600083815260200190815260200160002060009054906101000a900473ffffffffffffffffffffffffffffffffffffffff169050919050565b6000610bee8261164c565b90508073ffffffffffffffffffffffffffffffffffffffff168373ffffffffffffffffffffffffffffffffffffffff161415610c5f576040517f08c379a0000000000000000000000000000000000000000000000000000000008152600401610c5690615179565b60405180910390fd5b8073ffffffffffffffffffffffffffffffffffffffff16610c7e612667565b73ffffffffffffffffffffffffffffffffffffffff161480610cad5750610cac81610ca7612667565b6123cc565b5b610cec576040517f08c379a0000000000000000000000000000000000000000000000000000000008152600401610ce390615079565b60405180910390fd5b610cf683836126db565b505050565b600e5481565b6000600980549050905090565b610d1f610d19612667565b82612794565b610d5e576040517f08c379a0000000000000000000000000000000000000000000000000000000008152600401610d5590615199565b60405180910390fd5b610d69838383612872565b505050565b6010602052806000526040600020600091509050806000018054610d9190615795565b80601f0160208091040260200160405190810160405280929190818152602001828054610dbd90615795565b8015610e0a5780601f10610ddf57610100808354040283529160200191610e0a565b820191906000526020600020905b815481529060010190602001808311610ded57829003601f168201915b5050505050908060010160009054906101000a900460ff16908060010160019054906101000a900460ff16908060010160029054906101000a900460ff16908060010160039054906101000a900460ff16908060010160049054906101000a900463ffffffff16908060020154908060030154908060060160009054906101000a900460ff16908060060160019054906101000a900460ff1690508a565b6000610eb38361178c565b8210610ef4576040517f08c379a0000000000000000000000000000000000000000000000000000000008152600401610eeb90614f59565b60405180910390fd5b600760008473ffffffffffffffffffffffffffffffffffffffff1673ffffffffffffffffffffffffffffffffffffffff168152602001908152602001600020600083815260200190815260200160002054905092915050565b80610f578161164c565b73ffffffffffffffffffffffffffffffffffffffff163373ffffffffffffffffffffffffffffffffffffffff1614610fc4576040517f08c379a0000000000000000000000000000000000000000000000000000000008152600401610fbb90614f39565b60405180910390fd5b610fcd82612ace565b61100c576040517f08c379a000000000000000000000000000000000000000000000000000000000815260040161100390614fd9565b60405180910390fd5b61101582612af1565b15611055576040517f08c379a000000000000000000000000000000000000000000000000000000000815260040161104c90615059565b60405180910390fd5b60005b6009811015611100576010600084815260200190815260200160002060040181600981106110af577f4e487b7100000000000000000000000000000000000000000000000000000000600052603260045260246000fd5b6020918282040191900681819054906101000a900460ff16809291906110d490615810565b91906101000a81548160ff021916908360ff1602179055505080806110f8906157c7565b915050611058565b50600a6010600084815260200190815260200160002060010160048282829054906101000a900463ffffffff16611137919061542c565b92506101000a81548163ffffffff021916908363ffffffff16021790555061115e82612b1e565b61116782612bdf565b6003611171612c1c565b116111805761117f82612c2d565b5b5050565b8061118e8161164c565b73ffffffffffffffffffffffffffffffffffffffff163373ffffffffffffffffffffffffffffffffffffffff16146111fb576040517f08c379a00000000000000000000000000000000000000000000000000000000081526004016111f290614f39565b60405180910390fd5b600480811115611234577f4e487b7100000000000000000000000000000000000000000000000000000000600052602160045260246000fd5b6010600084815260200190815260200160002060060160016101000a81548160ff02191690836004811115611292577f4e487b7100000000000000000000000000000000000000000000000000000000600052602160045260246000fd5b02179055505050565b6112a3612667565b73ffffffffffffffffffffffffffffffffffffffff166112c1611c9a565b73ffffffffffffffffffffffffffffffffffffffff1614611317576040517f08c379a000000000000000000000000000000000000000000000000000000000815260040161130e90615119565b60405180910390fd5b3373ffffffffffffffffffffffffffffffffffffffff166108fc479081150290604051600060405180830381858888f1935050505061135557600080fd5b565b61137283838360405180602001604052806000815250611d7f565b505050565b606060126000838152602001908152602001600020805461139790615795565b80601f01602080910402602001604051908101604052809291908181526020018280546113c390615795565b80156114105780601f106113e557610100808354040283529160200191611410565b820191906000526020600020905b8154815290600101906020018083116113f357829003601f168201915b50505050509050919050565b6013828154811061142c57600080fd5b90600052602060002001816009811061144457600080fd5b60209182820401919006915091509054906101000a900460ff1681565b60116020528060005260406000206000915054906101000a900473ffffffffffffffffffffffffffffffffffffffff1681565b600061149e610d01565b82106114df576040517f08c379a00000000000000000000000000000000000000000000000000000000081526004016114d6906151b9565b60405180910390fd5b60098281548110611519577f4e487b7100000000000000000000000000000000000000000000000000000000600052603260045260246000fd5b90600052602060002001549050919050565b61153361399f565b601060008381526020019081526020016000206004016009806020026040519081016040528092919082600980156115a6576020028201916000905b82829054906101000a900460ff1660ff168152602001906001019060208260000104928301926001038202915080841161156f5790505b50505050509050919050565b806115bc8161164c565b73ffffffffffffffffffffffffffffffffffffffff163373ffffffffffffffffffffffffffffffffffffffff1614611629576040517f08c379a000000000000000000000000000000000000000000000000000000000815260040161162090614f39565b60405180910390fd5b611634338484612872565b505050565b600f60009054906101000a900460ff1681565b6000806003600084815260200190815260200160002060009054906101000a900473ffffffffffffffffffffffffffffffffffffffff169050600073ffffffffffffffffffffffffffffffffffffffff168173ffffffffffffffffffffffffffffffffffffffff1614156116f5576040517f08c379a00000000000000000000000000000000000000000000000000000000081526004016116ec906150b9565b60405180910390fd5b80915050919050565b600b805461170b90615795565b80601f016020809104026020016040519081016040528092919081815260200182805461173790615795565b80156117845780601f1061175957610100808354040283529160200191611784565b820191906000526020600020905b81548152906001019060200180831161176757829003601f168201915b505050505081565b60008073ffffffffffffffffffffffffffffffffffffffff168273ffffffffffffffffffffffffffffffffffffffff1614156117fd576040517f08c379a00000000000000000000000000000000000000000000000000000000081526004016117f490615099565b60405180910390fd5b600460008373ffffffffffffffffffffffffffffffffffffffff1673ffffffffffffffffffffffffffffffffffffffff168152602001908152602001600020549050919050565b61184c612667565b73ffffffffffffffffffffffffffffffffffffffff1661186a611c9a565b73ffffffffffffffffffffffffffffffffffffffff16146118c0576040517f08c379a00000000000000000000000000000000000000000000000000000000081526004016118b790615119565b60405180910390fd5b6118ca6000612c96565b565b6000600480811115611907577f4e487b7100000000000000000000000000000000000000000000000000000000600052602160045260246000fd5b600481111561193f577f4e487b7100000000000000000000000000000000000000000000000000000000600052602160045260246000fd5b6010600084815260200190815260200160002060060160019054906101000a900460ff16600481111561199b577f4e487b7100000000000000000000000000000000000000000000000000000000600052602160045260246000fd5b14156119aa57600190506119af565b600090505b919050565b6119bc6139c2565b60106000838152602001908152602001600020604051806101800160405290816000820180546119eb90615795565b80601f0160208091040260200160405190810160405280929190818152602001828054611a1790615795565b8015611a645780601f10611a3957610100808354040283529160200191611a64565b820191906000526020600020905b815481529060010190602001808311611a4757829003601f168201915b505050505081526020016001820160009054906101000a900460ff1660ff1660ff1681526020016001820160019054906101000a900460ff1660ff1660ff1681526020016001820160029054906101000a900460ff1660ff1660ff1681526020016001820160039054906101000a900460ff1660ff1660ff1681526020016001820160049054906101000a900463ffffffff1663ffffffff1663ffffffff168152602001600282015481526020016003820154815260200160048201600980602002604051908101604052809291908260098015611b7d576020028201916000905b82829054906101000a900460ff1660ff1681526020019060010190602082600001049283019260010382029150808411611b465790505b5050505050815260200160058201600680602002604051908101604052809291908260068015611be8576020028201916000905b82829054906101000a900460ff1660ff1681526020019060010190602082600001049283019260010382029150808411611bb15790505b505050505081526020016006820160009054906101000a900460ff161515151581526020016006820160019054906101000a900460ff166004811115611c57577f4e487b7100000000000000000000000000000000000000000000000000000000600052602160045260246000fd5b6004811115611c8f577f4e487b7100000000000000000000000000000000000000000000000000000000600052602160045260246000fd5b815250509050919050565b60008060009054906101000a900473ffffffffffffffffffffffffffffffffffffffff16905090565b606060028054611cd290615795565b80601f0160208091040260200160405190810160405280929190818152602001828054611cfe90615795565b8015611d4b5780601f10611d2057610100808354040283529160200191611d4b565b820191906000526020600020905b815481529060010190602001808311611d2e57829003601f168201915b5050505050905090565b611d67611d60612667565b8383612d5a565b5050565b600d60009054906101000a900461ffff1681565b611d90611d8a612667565b83612794565b611dcf576040517f08c379a0000000000000000000000000000000000000000000000000000000008152600401611dc690615199565b60405180910390fd5b611ddb84848484612ec7565b50505050565b600c8054611dee90615795565b80601f0160208091040260200160405190810160405280929190818152602001828054611e1a90615795565b8015611e675780601f10611e3c57610100808354040283529160200191611e67565b820191906000526020600020905b815481529060010190602001808311611e4a57829003601f168201915b505050505081565b6060611e7a8261266f565b611eb9576040517f08c379a0000000000000000000000000000000000000000000000000000000008152600401611eb090615159565b60405180910390fd5b6000600b8054611ec890615795565b80601f0160208091040260200160405190810160405280929190818152602001828054611ef490615795565b8015611f415780601f10611f1657610100808354040283529160200191611f41565b820191906000526020600020905b815481529060010190602001808311611f2457829003601f168201915b505050505090506000815111611f665760405180602001604052806000815250611f94565b80611f7084612f23565b600c604051602001611f8493929190614d32565b6040516020818303038152906040525b915050919050565b611fa4613a7b565b60106000838152602001908152602001600020600501600680602002604051908101604052809291908260068015612017576020028201916000905b82829054906101000a900460ff1660ff1681526020019060010190602082600001049283019260010382029150808411611fe05790505b50505050509050919050565b6000600a6120303361178c565b10612070576040517f08c379a0000000000000000000000000000000000000000000000000000000008152600401612067906151d9565b60405180910390fd5b600e5434101561207f57600080fd5b6000612089610d01565b905060405180610180016040528085815260200160aa60ff168152602001601260ff168152602001600160ff1681526020018460ff168152602001600063ffffffff16815260200142815260200182815260200160138560ff168154811061211a577f4e487b7100000000000000000000000000000000000000000000000000000000600052603260045260246000fd5b90600052602060002001600980602002604051908101604052809291908260098015612181576020028201916000905b82829054906101000a900460ff1660ff168152602001906001019060208260000104928301926001038202915080841161214a5790505b505050505081526020016040518060c00160405280600060ff168152602001600060ff168152602001600060ff168152602001600060ff168152602001600060ff168152602001600060ff16815250815260200160001515815260200160006004811115612218577f4e487b7100000000000000000000000000000000000000000000000000000000600052602160045260246000fd5b81525060106000838152602001908152602001600020600082015181600001908051906020019061224a929190613a9d565b5060208201518160010160006101000a81548160ff021916908360ff16021790555060408201518160010160016101000a81548160ff021916908360ff16021790555060608201518160010160026101000a81548160ff021916908360ff16021790555060808201518160010160036101000a81548160ff021916908360ff16021790555060a08201518160010160046101000a81548163ffffffff021916908363ffffffff16021790555060c0820151816002015560e0820151816003015561010082015181600401906009612322929190613b23565b506101208201518160050190600661233b929190613bbd565b506101408201518160060160006101000a81548160ff0219169083151502179055506101608201518160060160016101000a81548160ff021916908360048111156123af577f4e487b7100000000000000000000000000000000000000000000000000000000600052602160045260246000fd5b02179055509050506123c133826130d0565b600191505092915050565b6000600660008473ffffffffffffffffffffffffffffffffffffffff1673ffffffffffffffffffffffffffffffffffffffff16815260200190815260200160002060008373ffffffffffffffffffffffffffffffffffffffff1673ffffffffffffffffffffffffffffffffffffffff16815260200190815260200160002060009054906101000a900460ff16905092915050565b60006010600083815260200190815260200160002060060160019054906101000a900460ff169050919050565b612495612667565b73ffffffffffffffffffffffffffffffffffffffff166124b3611c9a565b73ffffffffffffffffffffffffffffffffffffffff1614612509576040517f08c379a000000000000000000000000000000000000000000000000000000000815260040161250090615119565b60405180910390fd5b600073ffffffffffffffffffffffffffffffffffffffff168173ffffffffffffffffffffffffffffffffffffffff161415612579576040517f08c379a000000000000000000000000000000000000000000000000000000000815260040161257090614f99565b60405180910390fd5b61258281612c96565b50565b60007f80ac58cd000000000000000000000000000000000000000000000000000000007bffffffffffffffffffffffffffffffffffffffffffffffffffffffff1916827bffffffffffffffffffffffffffffffffffffffffffffffffffffffff1916148061265057507f5b5e139f000000000000000000000000000000000000000000000000000000007bffffffffffffffffffffffffffffffffffffffffffffffffffffffff1916827bffffffffffffffffffffffffffffffffffffffffffffffffffffffff1916145b80612660575061265f8261329e565b5b9050919050565b600033905090565b60008073ffffffffffffffffffffffffffffffffffffffff166003600084815260200190815260200160002060009054906101000a900473ffffffffffffffffffffffffffffffffffffffff1673ffffffffffffffffffffffffffffffffffffffff1614159050919050565b816005600083815260200190815260200160002060006101000a81548173ffffffffffffffffffffffffffffffffffffffff021916908373ffffffffffffffffffffffffffffffffffffffff160217905550808273ffffffffffffffffffffffffffffffffffffffff1661274e8361164c565b73ffffffffffffffffffffffffffffffffffffffff167f8c5be1e5ebec7d5bd14f71427d1e84f3dd0314c0f7b2291e5b200ac8c7c3b92560405160405180910390a45050565b600061279f8261266f565b6127de576040517f08c379a00000000000000000000000000000000000000000000000000000000081526004016127d590615039565b60405180910390fd5b60006127e98361164c565b90508073ffffffffffffffffffffffffffffffffffffffff168473ffffffffffffffffffffffffffffffffffffffff16148061285857508373ffffffffffffffffffffffffffffffffffffffff1661284084610b5e565b73ffffffffffffffffffffffffffffffffffffffff16145b80612869575061286881856123cc565b5b91505092915050565b8273ffffffffffffffffffffffffffffffffffffffff166128928261164c565b73ffffffffffffffffffffffffffffffffffffffff16146128e8576040517f08c379a00000000000000000000000000000000000000000000000000000000081526004016128df90615139565b60405180910390fd5b600073ffffffffffffffffffffffffffffffffffffffff168273ffffffffffffffffffffffffffffffffffffffff161415612958576040517f08c379a000000000000000000000000000000000000000000000000000000000815260040161294f90614ff9565b60405180910390fd5b612963838383613308565b61296e6000826126db565b6001600460008573ffffffffffffffffffffffffffffffffffffffff1673ffffffffffffffffffffffffffffffffffffffff16815260200190815260200160002060008282546129be919061565b565b925050819055506001600460008473ffffffffffffffffffffffffffffffffffffffff1673ffffffffffffffffffffffffffffffffffffffff1681526020019081526020016000206000828254612a1591906153d6565b92505081905550816003600083815260200190815260200160002060006101000a81548173ffffffffffffffffffffffffffffffffffffffff021916908373ffffffffffffffffffffffffffffffffffffffff160217905550808273ffffffffffffffffffffffffffffffffffffffff168473ffffffffffffffffffffffffffffffffffffffff167fddf252ad1be2c89b69c2b068fc378daa952ba7f163c4a11628f55a4df523b3ef60405160405180910390a4505050565b600042601060008481526020019081526020016000206002015411159050919050565b60006010600083815260200190815260200160002060060160009054906101000a900460ff169050919050565b60036010600083815260200190815260200160002060010160029054906101000a900460ff16612b4e9190615521565b6008612b5a9190615620565b60ff166010600083815260200190815260200160002060010160049054906101000a900463ffffffff1663ffffffff161115612bdc5760016010600083815260200190815260200160002060010160028282829054906101000a900460ff16612bc39190615466565b92506101000a81548160ff021916908360ff1602179055505b50565b600d60009054906101000a900461ffff1661ffff1642612bff91906153d6565b601060008381526020019081526020016000206002018190555050565b6000612c28606461341c565b905090565b60016010600083815260200190815260200160002060060160006101000a81548160ff0219169083151502179055507fca1d3cb9a0d463be24bd916b5b1388c0039c7bc3e1d708f5645a9c707d4bd0ba81604051612c8b9190615236565b60405180910390a150565b60008060009054906101000a900473ffffffffffffffffffffffffffffffffffffffff169050816000806101000a81548173ffffffffffffffffffffffffffffffffffffffff021916908373ffffffffffffffffffffffffffffffffffffffff1602179055508173ffffffffffffffffffffffffffffffffffffffff168173ffffffffffffffffffffffffffffffffffffffff167f8be0079c531659141344cd1fd0a4f28419497f9722a3daafe3b4186f6b6457e060405160405180910390a35050565b8173ffffffffffffffffffffffffffffffffffffffff168373ffffffffffffffffffffffffffffffffffffffff161415612dc9576040517f08c379a0000000000000000000000000000000000000000000000000000000008152600401612dc090615019565b60405180910390fd5b80600660008573ffffffffffffffffffffffffffffffffffffffff1673ffffffffffffffffffffffffffffffffffffffff16815260200190815260200160002060008473ffffffffffffffffffffffffffffffffffffffff1673ffffffffffffffffffffffffffffffffffffffff16815260200190815260200160002060006101000a81548160ff0219169083151502179055508173ffffffffffffffffffffffffffffffffffffffff168373ffffffffffffffffffffffffffffffffffffffff167f17307eab39ab6107e8899845ad3d59bd9653f200f220920489ca2b5937696c3183604051612eba9190614e3e565b60405180910390a3505050565b612ed2848484612872565b612ede84848484613478565b612f1d576040517f08c379a0000000000000000000000000000000000000000000000000000000008152600401612f1490614f79565b60405180910390fd5b50505050565b60606000821415612f6b576040518060400160405280600181526020017f300000000000000000000000000000000000000000000000000000000000000081525090506130cb565b600082905060005b60008214612f9d578080612f86906157c7565b915050600a82612f96919061549d565b9150612f73565b60008167ffffffffffffffff811115612fdf577f4e487b7100000000000000000000000000000000000000000000000000000000600052604160045260246000fd5b6040519080825280601f01601f1916602001820160405280156130115781602001600182028036833780820191505090505b5090505b600085146130c45760018261302a919061565b565b9150600a856130399190615868565b603061304591906153d6565b60f81b818381518110613081577f4e487b7100000000000000000000000000000000000000000000000000000000600052603260045260246000fd5b60200101907effffffffffffffffffffffffffffffffffffffffffffffffffffffffffffff1916908160001a905350600a856130bd919061549d565b9450613015565b8093505050505b919050565b600073ffffffffffffffffffffffffffffffffffffffff168273ffffffffffffffffffffffffffffffffffffffff161415613140576040517f08c379a0000000000000000000000000000000000000000000000000000000008152600401613137906150d9565b60405180910390fd5b6131498161266f565b15613189576040517f08c379a000000000000000000000000000000000000000000000000000000000815260040161318090614fb9565b60405180910390fd5b61319560008383613308565b6001600460008473ffffffffffffffffffffffffffffffffffffffff1673ffffffffffffffffffffffffffffffffffffffff16815260200190815260200160002060008282546131e591906153d6565b92505081905550816003600083815260200190815260200160002060006101000a81548173ffffffffffffffffffffffffffffffffffffffff021916908373ffffffffffffffffffffffffffffffffffffffff160217905550808273ffffffffffffffffffffffffffffffffffffffff16600073ffffffffffffffffffffffffffffffffffffffff167fddf252ad1be2c89b69c2b068fc378daa952ba7f163c4a11628f55a4df523b3ef60405160405180910390a45050565b60007f01ffc9a7000000000000000000000000000000000000000000000000000000007bffffffffffffffffffffffffffffffffffffffffffffffffffffffff1916827bffffffffffffffffffffffffffffffffffffffffffffffffffffffff1916149050919050565b61331383838361360f565b600073ffffffffffffffffffffffffffffffffffffffff168373ffffffffffffffffffffffffffffffffffffffff1614156133565761335181613614565b613395565b8173ffffffffffffffffffffffffffffffffffffffff168373ffffffffffffffffffffffffffffffffffffffff161461339457613393838261365d565b5b5b600073ffffffffffffffffffffffffffffffffffffffff168273ffffffffffffffffffffffffffffffffffffffff1614156133d8576133d3816137ca565b613417565b8273ffffffffffffffffffffffffffffffffffffffff168273ffffffffffffffffffffffffffffffffffffffff161461341657613415828261390d565b5b5b505050565b600060146000815480929190613431906157c7565b919050555081423360145460405160200161344e93929190614d63565b6040516020818303038152906040528051906020012060001c6134719190615868565b9050919050565b60006134998473ffffffffffffffffffffffffffffffffffffffff1661398c565b15613602578373ffffffffffffffffffffffffffffffffffffffff1663150b7a026134c2612667565b8786866040518563ffffffff1660e01b81526004016134e49493929190614dbb565b602060405180830381600087803b1580156134fe57600080fd5b505af192505050801561352f57506040513d601f19601f8201168201806040525081019061352c9190613fbb565b60015b6135b2573d806000811461355f576040519150601f19603f3d011682016040523d82523d6000602084013e613564565b606091505b506000815114156135aa576040517f08c379a00000000000000000000000000000000000000000000000000000000081526004016135a190614f79565b60405180910390fd5b805181602001fd5b63150b7a0260e01b7bffffffffffffffffffffffffffffffffffffffffffffffffffffffff1916817bffffffffffffffffffffffffffffffffffffffffffffffffffffffff191614915050613607565b600190505b949350505050565b505050565b600980549050600a600083815260200190815260200160002081905550600981908060018154018082558091505060019003906000526020600020016000909190919091505550565b6000600161366a8461178c565b613674919061565b565b9050600060086000848152602001908152602001600020549050818114613759576000600760008673ffffffffffffffffffffffffffffffffffffffff1673ffffffffffffffffffffffffffffffffffffffff168152602001908152602001600020600084815260200190815260200160002054905080600760008773ffffffffffffffffffffffffffffffffffffffff1673ffffffffffffffffffffffffffffffffffffffff168152602001908152602001600020600084815260200190815260200160002081905550816008600083815260200190815260200160002081905550505b6008600084815260200190815260200160002060009055600760008573ffffffffffffffffffffffffffffffffffffffff1673ffffffffffffffffffffffffffffffffffffffff16815260200190815260200160002060008381526020019081526020016000206000905550505050565b600060016009805490506137de919061565b565b90506000600a6000848152602001908152602001600020549050600060098381548110613834577f4e487b7100000000000000000000000000000000000000000000000000000000600052603260045260246000fd5b90600052602060002001549050806009838154811061387c577f4e487b7100000000000000000000000000000000000000000000000000000000600052603260045260246000fd5b906000526020600020018190555081600a600083815260200190815260200160002081905550600a60008581526020019081526020016000206000905560098054806138f1577f4e487b7100000000000000000000000000000000000000000000000000000000600052603160045260246000fd5b6001900381819060005260206000200160009055905550505050565b60006139188361178c565b905081600760008573ffffffffffffffffffffffffffffffffffffffff1673ffffffffffffffffffffffffffffffffffffffff168152602001908152602001600020600083815260200190815260200160002081905550806008600084815260200190815260200160002081905550505050565b600080823b905060008111915050919050565b604051806101200160405280600990602082028036833780820191505090505090565b60405180610180016040528060608152602001600060ff168152602001600060ff168152602001600060ff168152602001600060ff168152602001600063ffffffff1681526020016000815260200160008152602001613a2061399f565b8152602001613a2d613a7b565b815260200160001515815260200160006004811115613a75577f4e487b7100000000000000000000000000000000000000000000000000000000600052602160045260246000fd5b81525090565b6040518060c00160405280600690602082028036833780820191505090505090565b828054613aa990615795565b90600052602060002090601f016020900481019282613acb5760008555613b12565b82601f10613ae457805160ff1916838001178555613b12565b82800160010185558215613b12579182015b82811115613b11578251825591602001919060010190613af6565b5b509050613b1f9190613c57565b5090565b826009601f01602090048101928215613bac5791602002820160005b83821115613b7d57835183826101000a81548160ff021916908360ff1602179055509260200192600101602081600001049283019260010302613b3f565b8015613baa5782816101000a81549060ff0219169055600101602081600001049283019260010302613b7d565b505b509050613bb99190613c57565b5090565b826006601f01602090048101928215613c465791602002820160005b83821115613c1757835183826101000a81548160ff021916908360ff1602179055509260200192600101602081600001049283019260010302613bd9565b8015613c445782816101000a81549060ff0219169055600101602081600001049283019260010302613c17565b505b509050613c539190613c57565b5090565b5b80821115613c70576000816000905550600101613c58565b5090565b6000613c87613c828461529d565b61526c565b905082815260208101848484011115613c9f57600080fd5b613caa848285615753565b509392505050565b6000613cc5613cc0846152cd565b61526c565b905082815260208101848484011115613cdd57600080fd5b613ce8848285615753565b509392505050565b600081359050613cff816159c3565b92915050565b600081359050613d14816159da565b92915050565b600081359050613d29816159f1565b92915050565b600081519050613d3e816159f1565b92915050565b600082601f830112613d5557600080fd5b8135613d65848260208601613c74565b91505092915050565b600082601f830112613d7f57600080fd5b8135613d8f848260208601613cb2565b91505092915050565b600081359050613da781615a08565b92915050565b600081359050613dbc81615a1f565b92915050565b600060208284031215613dd457600080fd5b6000613de284828501613cf0565b91505092915050565b60008060408385031215613dfe57600080fd5b6000613e0c85828601613cf0565b9250506020613e1d85828601613cf0565b9150509250929050565b600080600060608486031215613e3c57600080fd5b6000613e4a86828701613cf0565b9350506020613e5b86828701613cf0565b9250506040613e6c86828701613d98565b9150509250925092565b60008060008060808587031215613e8c57600080fd5b6000613e9a87828801613cf0565b9450506020613eab87828801613cf0565b9350506040613ebc87828801613d98565b925050606085013567ffffffffffffffff811115613ed957600080fd5b613ee587828801613d44565b91505092959194509250565b60008060408385031215613f0457600080fd5b6000613f1285828601613cf0565b9250506020613f2385828601613d05565b9150509250929050565b60008060408385031215613f4057600080fd5b6000613f4e85828601613cf0565b9250506020613f5f85828601613d98565b9150509250929050565b600060208284031215613f7b57600080fd5b6000613f8984828501613d05565b91505092915050565b600060208284031215613fa457600080fd5b6000613fb284828501613d1a565b91505092915050565b600060208284031215613fcd57600080fd5b6000613fdb84828501613d2f565b91505092915050565b60008060408385031215613ff757600080fd5b600083013567ffffffffffffffff81111561401157600080fd5b61401d85828601613d6e565b925050602061402e85828601613dad565b9150509250929050565b60006020828403121561404a57600080fd5b600061405884828501613d98565b91505092915050565b6000806040838503121561407457600080fd5b600061408285828601613d98565b925050602061409385828601613d98565b9150509250929050565b60006140a98383614d14565b60208301905092915050565b6140be8161568f565b82525050565b6140d56140d08261568f565b61583a565b82525050565b6140e481615326565b6140ee818461536c565b92506140f9826152fd565b8060005b8381101561412a578151614111878261409d565b965061411c83615352565b9250506001810190506140fd565b505050505050565b61413b81615326565b6141458184615377565b9250614150826152fd565b8060005b83811015614181578151614168878261409d565b965061417383615352565b925050600181019050614154565b505050505050565b61419281615331565b61419c8184615382565b92506141a782615307565b8060005b838110156141d85781516141bf878261409d565b96506141ca8361535f565b9250506001810190506141ab565b505050505050565b6141e981615331565b6141f3818461538d565b92506141fe82615307565b8060005b8381101561422f578151614216878261409d565b96506142218361535f565b925050600181019050614202565b505050505050565b614240816156a1565b82525050565b61424f816156a1565b82525050565b60006142608261533c565b61426a8185615398565b935061427a818560208601615762565b61428381615984565b840191505092915050565b61429781615741565b82525050565b6142a681615741565b82525050565b60006142b782615347565b6142c181856153a9565b93506142d1818560208601615762565b6142da81615984565b840191505092915050565b60006142f082615347565b6142fa81856153ba565b935061430a818560208601615762565b61431381615984565b840191505092915050565b600061432982615347565b61433381856153cb565b9350614343818560208601615762565b80840191505092915050565b6000815461435c81615795565b61436681866153cb565b945060018216600081146143815760018114614392576143c5565b60ff198316865281860193506143c5565b61439b85615311565b60005b838110156143bd5781548189015260018201915060208101905061439e565b838801955050505b50505092915050565b60006143db6027836153ba565b91507f4e6f742074686520726967687466756c6c206f776e6572206f6620746869732060008301527f66696768746572000000000000000000000000000000000000000000000000006020830152604082019050919050565b6000614441602b836153ba565b91507f455243373231456e756d657261626c653a206f776e657220696e646578206f7560008301527f74206f6620626f756e64730000000000000000000000000000000000000000006020830152604082019050919050565b60006144a76032836153ba565b91507f4552433732313a207472616e7366657220746f206e6f6e20455243373231526560008301527f63656976657220696d706c656d656e74657200000000000000000000000000006020830152604082019050919050565b600061450d6026836153ba565b91507f4f776e61626c653a206e6577206f776e657220697320746865207a65726f206160008301527f64647265737300000000000000000000000000000000000000000000000000006020830152604082019050919050565b6000614573601c836153ba565b91507f4552433732313a20746f6b656e20616c7265616479206d696e746564000000006000830152602082019050919050565b60006145b36018836153ba565b91507f6e6f7420726561647920746f20747261696e20616761696e00000000000000006000830152602082019050919050565b60006145f36024836153ba565b91507f4552433732313a207472616e7366657220746f20746865207a65726f2061646460008301527f72657373000000000000000000000000000000000000000000000000000000006020830152604082019050919050565b60006146596019836153ba565b91507f4552433732313a20617070726f766520746f2063616c6c6572000000000000006000830152602082019050919050565b6000614699602c836153ba565b91507f4552433732313a206f70657261746f7220717565727920666f72206e6f6e657860008301527f697374656e7420746f6b656e00000000000000000000000000000000000000006020830152604082019050919050565b60006146ff6019836153ba565b91507f63616e277420747261696e207768696c6520696e6a75726564000000000000006000830152602082019050919050565b600061473f6038836153ba565b91507f4552433732313a20617070726f76652063616c6c6572206973206e6f74206f7760008301527f6e6572206e6f7220617070726f76656420666f7220616c6c00000000000000006020830152604082019050919050565b60006147a5602a836153ba565b91507f4552433732313a2062616c616e636520717565727920666f7220746865207a6560008301527f726f2061646472657373000000000000000000000000000000000000000000006020830152604082019050919050565b600061480b6029836153ba565b91507f4552433732313a206f776e657220717565727920666f72206e6f6e657869737460008301527f656e7420746f6b656e00000000000000000000000000000000000000000000006020830152604082019050919050565b60006148716020836153ba565b91507f4552433732313a206d696e7420746f20746865207a65726f20616464726573736000830152602082019050919050565b60006148b1602c836153ba565b91507f4552433732313a20617070726f76656420717565727920666f72206e6f6e657860008301527f697374656e7420746f6b656e00000000000000000000000000000000000000006020830152604082019050919050565b60006149176020836153ba565b91507f4f776e61626c653a2063616c6c6572206973206e6f7420746865206f776e65726000830152602082019050919050565b60006149576029836153ba565b91507f4552433732313a207472616e73666572206f6620746f6b656e2074686174206960008301527f73206e6f74206f776e00000000000000000000000000000000000000000000006020830152604082019050919050565b60006149bd602f836153ba565b91507f4552433732314d657461646174613a2055524920717565727920666f72206e6f60008301527f6e6578697374656e7420746f6b656e00000000000000000000000000000000006020830152604082019050919050565b6000614a236021836153ba565b91507f4552433732313a20617070726f76616c20746f2063757272656e74206f776e6560008301527f72000000000000000000000000000000000000000000000000000000000000006020830152604082019050919050565b6000614a896031836153ba565b91507f4552433732313a207472616e736665722063616c6c6572206973206e6f74206f60008301527f776e6572206e6f7220617070726f7665640000000000000000000000000000006020830152604082019050919050565b6000614aef602c836153ba565b91507f455243373231456e756d657261626c653a20676c6f62616c20696e646578206f60008301527f7574206f6620626f756e647300000000000000000000000000000000000000006020830152604082019050919050565b6000614b556022836153ba565b91507f6f6e65206f776e65722063616e2068617665206d61782031302066696768746560008301527f72730000000000000000000000000000000000000000000000000000000000006020830152604082019050919050565b6000610320830160008301518482036000860152614bcc82826142ac565b9150506020830151614be16020860182614d14565b506040830151614bf46040860182614d14565b506060830151614c076060860182614d14565b506080830151614c1a6080860182614d14565b5060a0830151614c2d60a0860182614cf6565b5060c0830151614c4060c0860182614cc1565b5060e0830151614c5360e0860182614cc1565b50610100830151614c68610100860182614189565b50610120830151614c7d6102208601826140db565b50610140830151614c926102e0860182614237565b50610160830151614ca761030086018261428e565b508091505092915050565b614cbb816156ec565b82525050565b614cca8161571a565b82525050565b614cd98161571a565b82525050565b614cf0614ceb8261571a565b61585e565b82525050565b614cff81615724565b82525050565b614d0e81615724565b82525050565b614d1d81615734565b82525050565b614d2c81615734565b82525050565b6000614d3e828661431e565b9150614d4a828561431e565b9150614d56828461434f565b9150819050949350505050565b6000614d6f8286614cdf565b602082019150614d7f82856140c4565b601482019150614d8f8284614cdf565b602082019150819050949350505050565b6000602082019050614db560008301846140b5565b92915050565b6000608082019050614dd060008301876140b5565b614ddd60208301866140b5565b614dea6040830185614cd0565b8181036060830152614dfc8184614255565b905095945050505050565b600060c082019050614e1c6000830184614132565b92915050565b600061012082019050614e3860008301846141e0565b92915050565b6000602082019050614e536000830184614246565b92915050565b6000602082019050614e6e600083018461429d565b92915050565b60006020820190508181036000830152614e8e81846142e5565b905092915050565b6000610140820190508181036000830152614eb1818d6142e5565b9050614ec0602083018c614d23565b614ecd604083018b614d23565b614eda606083018a614d23565b614ee76080830189614d23565b614ef460a0830188614d05565b614f0160c0830187614cd0565b614f0e60e0830186614cd0565b614f1c610100830185614246565b614f2a61012083018461429d565b9b9a5050505050505050505050565b60006020820190508181036000830152614f52816143ce565b9050919050565b60006020820190508181036000830152614f7281614434565b9050919050565b60006020820190508181036000830152614f928161449a565b9050919050565b60006020820190508181036000830152614fb281614500565b9050919050565b60006020820190508181036000830152614fd281614566565b9050919050565b60006020820190508181036000830152614ff2816145a6565b9050919050565b60006020820190508181036000830152615012816145e6565b9050919050565b600060208201905081810360008301526150328161464c565b9050919050565b600060208201905081810360008301526150528161468c565b9050919050565b60006020820190508181036000830152615072816146f2565b9050919050565b6000602082019050818103600083015261509281614732565b9050919050565b600060208201905081810360008301526150b281614798565b9050919050565b600060208201905081810360008301526150d2816147fe565b9050919050565b600060208201905081810360008301526150f281614864565b9050919050565b60006020820190508181036000830152615112816148a4565b9050919050565b600060208201905081810360008301526151328161490a565b9050919050565b600060208201905081810360008301526151528161494a565b9050919050565b60006020820190508181036000830152615172816149b0565b9050919050565b6000602082019050818103600083015261519281614a16565b9050919050565b600060208201905081810360008301526151b281614a7c565b9050919050565b600060208201905081810360008301526151d281614ae2565b9050919050565b600060208201905081810360008301526151f281614b48565b9050919050565b600060208201905081810360008301526152138184614bae565b905092915050565b60006020820190506152306000830184614cb2565b92915050565b600060208201905061524b6000830184614cd0565b92915050565b60006020820190506152666000830184614d23565b92915050565b6000604051905081810181811067ffffffffffffffff8211171561529357615292615955565b5b8060405250919050565b600067ffffffffffffffff8211156152b8576152b7615955565b5b601f19601f8301169050602081019050919050565b600067ffffffffffffffff8211156152e8576152e7615955565b5b601f19601f8301169050602081019050919050565b6000819050919050565b6000819050919050565b60008190508160005260206000209050919050565b600060069050919050565b600060099050919050565b600081519050919050565b600081519050919050565b6000602082019050919050565b6000602082019050919050565b600081905092915050565b600081905092915050565b600081905092915050565b600081905092915050565b600082825260208201905092915050565b600082825260208201905092915050565b600082825260208201905092915050565b600081905092915050565b60006153e18261571a565b91506153ec8361571a565b9250827fffffffffffffffffffffffffffffffffffffffffffffffffffffffffffffffff0382111561542157615420615899565b5b828201905092915050565b600061543782615724565b915061544283615724565b92508263ffffffff0382111561545b5761545a615899565b5b828201905092915050565b600061547182615734565b915061547c83615734565b92508260ff0382111561549257615491615899565b5b828201905092915050565b60006154a88261571a565b91506154b38361571a565b9250826154c3576154c26158c8565b5b828204905092915050565b6000808291508390505b6001851115615518578086048111156154f4576154f3615899565b5b60018516156155035780820291505b8081029050615511856159a2565b94506154d8565b94509492505050565b600061552c82615734565b915061553783615734565b925061554560ff848461554d565b905092915050565b60008261555d5760019050615619565b8161556b5760009050615619565b8160018114615581576002811461558b576155ba565b6001915050615619565b60ff84111561559d5761559c615899565b5b8360020a9150848211156155b4576155b3615899565b5b50615619565b5060208310610133831016604e8410600b84101617156155ef5782820a9050838111156155ea576155e9615899565b5b615619565b6155fc84848460016154ce565b9250905081840481111561561357615612615899565b5b81810290505b9392505050565b600061562b82615734565b915061563683615734565b92508160ff04831182151516156156505761564f615899565b5b828202905092915050565b60006156668261571a565b91506156718361571a565b92508282101561568457615683615899565b5b828203905092915050565b600061569a826156fa565b9050919050565b60008115159050919050565b60007fffffffff0000000000000000000000000000000000000000000000000000000082169050919050565b60008190506156e7826159af565b919050565b600061ffff82169050919050565b600073ffffffffffffffffffffffffffffffffffffffff82169050919050565b6000819050919050565b600063ffffffff82169050919050565b600060ff82169050919050565b600061574c826156d9565b9050919050565b82818337600083830152505050565b60005b83811015615780578082015181840152602081019050615765565b8381111561578f576000848401525b50505050565b600060028204905060018216806157ad57607f821691505b602082108114156157c1576157c0615926565b5b50919050565b60006157d28261571a565b91507fffffffffffffffffffffffffffffffffffffffffffffffffffffffffffffffff82141561580557615804615899565b5b600182019050919050565b600061581b82615734565b915060ff82141561582f5761582e615899565b5b600182019050919050565b60006158458261584c565b9050919050565b600061585782615995565b9050919050565b6000819050919050565b60006158738261571a565b915061587e8361571a565b92508261588e5761588d6158c8565b5b828206905092915050565b7f4e487b7100000000000000000000000000000000000000000000000000000000600052601160045260246000fd5b7f4e487b7100000000000000000000000000000000000000000000000000000000600052601260045260246000fd5b7f4e487b7100000000000000000000000000000000000000000000000000000000600052602160045260246000fd5b7f4e487b7100000000000000000000000000000000000000000000000000000000600052602260045260246000fd5b7f4e487b7100000000000000000000000000000000000000000000000000000000600052604160045260246000fd5b6000601f19601f8301169050919050565b60008160601b9050919050565b60008160011c9050919050565b600581106159c0576159bf6158f7565b5b50565b6159cc8161568f565b81146159d757600080fd5b50565b6159e3816156a1565b81146159ee57600080fd5b50565b6159fa816156ad565b8114615a0557600080fd5b50565b615a118161571a565b8114615a1c57600080fd5b50565b615a2881615734565b8114615a3357600080fd5b5056fea2646970667358221220aed60458ecb6907fc9403cb5807974fc39b33dd3adc6c120710062ee33a5b40164736f6c63430008000033697066733a2f2f516d4e716e72424148764b595963694779326d4b5a706b416e414a4a6f58426878327679554c6357483446696d392f",
  "linkReferences": {},
  "deployedLinkReferences": {}
}